:020000022000DC
:10600000D86F002029AC02004B720400FDAB0200E7
:10601000FDAB0200FDAB0200FDAB02000000000082
:106020000000000000000000000000004DAD020074
:10603000FDAB020000000000B9AC0200FDAB0200A5
:106040006DAF020051C303006DAF02006DAF0200DF
:106050006DAF02006DAF02006DAF02006DAF0200C8
:106060006DAF02006DAF02006DAF02006DAF0200B8
:106070006DAF02006DAF02006DAF02006DAF0200A8
:106080006DAF02006DAF02006DAF02006DAF020098
:106090006DAF02006DAF02006DAF02006DAF020088
:1060A0006DAF02006DAF02006DAF02006DAF020078
:1060B0006DAF02006DAF02006DAF02006DAF020068
:1060C0006DAF02006DAF02006DAF02006DAF020058
:1060D0006DAF02006DAF02006DAF02006DAF020048
:1060E0006DAF02006DAF02006DAF02006DAF020038
:1060F0006DAF02006DAF02006DAF02006DAF020028
:1061000053B94AB9002908BF00281CBF4FF0FF311E
:106110004FF0FF3000F00CB8ADF1080C6DE904CE83
:1061200000F008F8DDF804E0DDE9022304B0704770
:10613000704700BF2DE9F04786468C460846089E0A
:10614000154674461946002B40F0C2808542B2FACB
:1061500082F245D94AB1C2F1200300FA02FC2EFABC
:1061600003F3954043EA0C0C94404FEA154EA8B255
:10617000BCFBFEF8230C0EFB18CC08FB00F943EA2D
:106180000C43994528D9EB1808F1FF3704D29945FB
:1061900002D9A8F102072B44A3EB0903A4B2B3FB75
:1061A000FEFC0EFB1C330CFB00F044EA0344A0424F
:1061B00014D92C190CF1FF3304D2A04202D9ACF14E
:1061C00002032C44241A43EA07401EB1D4400023A2
:1061D00034607360BDE8F0874746DDE76346F1E76A
:1061E00092BB431B01214FEA154EAFB2B3FBFEFC3D
:1061F000200C0EFB1C330CFB07F840EA03439845C8
:1062000062D9EB180CF1FF3004D2984502D9ACF1F9
:1062100002002B44A3EB0803A4B2B3FBFEFC0EFB6D
:106220001C330CFB07F744EA0344A7424ED92C1950
:106230000CF1FF3304D2A74202D9ACF102032C4483
:10624000E41B43EA0040C0E7C2F1200320FA03F157
:10625000954090402EFA03F303434FEA154EAFB238
:10626000B1FBFEFC0EFB1C10190C0CFB07F841EAFD
:106270000041884504FA02F422D969180CF1FF3074
:1062800004D2884502D9ACF102002944A1EB0801EF
:106290009BB2B1FBFEFC0EFB1C110CFB07F743EAA3
:1062A00001439F420ED9EB180CF1FF3104D29F42FB
:1062B00002D9ACF102012B44DB1B41EA004192E719
:1062C0006046E3E76146F7E76046A3E76346B7E762
:1062D000834206D916B9002108467BE7C6E900E0EB
:1062E000F9E7B3FA83F78FB9834201D3724508D82F
:1062F000BEEB020460EB030301209C461EB90021A3
:1063000068E73846FAE7C6E9004CF8E7C7F1200C21
:10631000BB4022FA0CF41C432EFA0CF120FA0CF3C9
:10632000B84001434FEA14490EFA07F5B3FBF9F8F8
:106330001FFA84FE09FB18300B0C08FB0EFA43EA27
:1063400000439A4502FA07F240D9E31808F1FF30FA
:1063500004D29A4502D9A8F102002344A3EB0A0310
:1063600089B2B3FBF9F809FB183308FB0EFE41EACA
:1063700003418E452CD9611808F1FF3304D28E45B4
:1063800002D9A8F10203214443EA0040A0FB02988D
:10639000A1EB0E014145CE46434602D306D14D4501
:1063A00004D2B9EB020E68EB04030138002EA6D02C
:1063B000B5EB0E0261EB030101FA0CFC22FA07F3C4
:1063C0004CEA0303F940C6E9003198E74046C5E7C7
:1063D0004346D9E710F8012B11F8013B012A28BFE9
:1063E0009A42F7D0D01A7047034611F8012B03F8F0
:1063F000012B002AF9D17047034613F8012B002A1C
:10640000FBD1181A01387047F7B53E4DD5F85C310D
:10641000996811F0010121D101AA40F6034005F06D
:106420008DFC044600286AD10198C3681B789BB98B
:10643000BFF35B8FD5F8D430BFF35B8F05F1D40287
:1064400003F00903BFF35B8F52E8001F42E80034FA
:10645000002CF9D1BFF35B8F18F06CFE01AA00216C
:1064600041F2030005F06AFC0446002847D1019B75
:10647000254EDA68D2F80100D2F8051003C6184696
:1064800018F058FE214601AA41F2010005F056FC21
:106490000446A0BB0198C3685A7885F870205A88D2
:1064A000A5F872201A7985F87120B3F80720A5F8AD
:1064B0007420B3F80530A5F8763018F03BFE21467D
:1064C00001AA41F2020005F039FC0446B8B9019F67
:1064D000FA68531C413218685968344603C40833BB
:1064E00093422646F7D1094820F06EFF384618F04F
:1064F00021FE95F87C305B060AD46FF0120420462A
:1065000003B0F0BD000000207800002080000020D3
:1065100001AA002142F2030005F010FC0446002805
:10652000EDD1019BB64EDA68D2F80100D2F8051021
:1065300003C6184618F0FEFD214601AA42F20200E9
:1065400005F0FCFB04460028D9D1019CE368B3F8B0
:10655000012091B249B1D97839B1A5F80421DA788E
:10656000114606F1280025F073F8204618F0E2FDE8
:1065700095F87C6016F0200618D1022140F66D4097
:1065800005F080FB0446002800F0CC8002210C308E
:1065900023F0FFFF0123037046702146324640F688
:1065A0006D4005F0CBFB04460028A8D195F89C303F
:1065B0001F0712D501AA002142F21C0005F0BEFB04
:1065C000044600289BD10198C368D3F80120D3F872
:1065D0000530C5E9382318F0ADFD95F8D8309E0692
:1065E00024D50DF10201684621F0B1F904460028D6
:1065F00085D1042142F2240005F044FB0646002820
:1066000000F0908004210C3023F0C3FFBDF800306F
:106610000380BDF8023043802246314642F2240016
:1066200005F08CFB044600287FF469AF95F8D8305C
:106630005C0610D501AA002142F22A0005F07EFB7B
:10664000044600287FF45BAF0198C3685B7885F847
:10665000203118F06FFD082142F2010005F012FB15
:10666000044600285ED008210C3023F092FF95F8F4
:10667000D81011F0400F024640F2022308BF032356
:1066800088074CBF43F02C0043F00C0095F8D9303C
:106690008F0648BF40F0400013F0090F95F8A23074
:1066A00018BF40F4006003F00603CE0748BF40F077
:1066B0001000062B08BF40F4C070002121F013F831
:1066C0002146002242F2010005F038FB0446002872
:1066D0007FF415AF95F87C30B5F80411980624D4F2
:1066E000C9B901AA41F2050005F028FB04460028BB
:1066F0007FF405AFB5F80431019C4BB9E368B3F8FA
:106700000120A5F804219A883E48114624F0A0FFF4
:10671000204618F00FFD082140F6014005F0B2FABE
:10672000044638B96FF06804E9E60029F3D16FF048
:106730000404E4E608210C3023F02BFF95F8D83050
:10674000D907024653BF4FF000512BA1D1E90001F8
:106750002D4820F0C8FF2146002240F6014005F0F8
:10676000EDFA044600287FF4CAAE014601AA4FF6AE
:10677000014005F0E3FA044620BB019818F0DAFC6A
:10678000214601AA4FF6024005F0D8FA0446C8B9DE
:106790000198C368B3F80130A5F8C13018F0CAFCFD
:1067A00095F8C1305B070DD501AA21464FF603408D
:1067B00005F0C4FA30B90198C3685B7885F8C03039
:1067C00018F0B8FC21F037FB044600287FF497AEA0
:1067D00007F020FA044600287FF491AEEB79002BF5
:1067E0003FF48DAE0821094820F0C0FE05F05AFDA7
:1067F00085E600BFAFF30080908800020080002093
:10680000D80000200801002010880002D4000020D9
:106810002DE9F843D0E90C35D0F82C805C193034E0
:10682000A0450F46164619D81D4DA3FB05011AA316
:10683000D3E90023FFF764FC0346A4EB0800A0FBA8
:10684000050123F07F4414A3D3E90023FFF758FC8C
:1068500020F07F403C603060BDE8F883DFF8409076
:106860000DA3D3E90023A8FB0901FFF749FC044667
:1068700005F1300008A3D3E90023A0FB0901FFF7CD
:106880003FFC24F07F4420F07F403C603060BDE856
:10689000F88300BFAFF300808D49FD1A07000000A8
:1068A00000CA9A3B000000009FED097B0E4B0F4A87
:1068B0000F4983ED007B9FED087B82ED007B9FED10
:1068C000087B0C4B002281ED007B1A600DF0F2B9C1
:1068D000FFFFFFFFFF1F000000000000000000009E
:1068E0001F00000000000000880100203818002070
:1068F00080010020002C0020002800F046812DE9B6
:10690000F04FC94C94F86A2012F001058DB040F0A8
:10691000788194F82500FF2300F0030084F82630E6
:1069200015F000F994F86A00420727D494F829205A
:1069300094F8353004EB820204EB8303D66AD3F873
:10694000388086B1B84831460EF068FF33785B0670
:1069500005D506210AF03AFA002800F05481B24821
:1069600041460EF05BFF337813F00E0F40F09E802F
:10697000236A93B10C200DB0BDE8F08F2A4604F1D4
:106980006B01C0F3C00015F03DFAFF2884F8260023
:10699000CCD0284615F0E0F8C8E70CF0D5FA8146CF
:1069A000002800F054810CF0DBFA8246002800F049
:1069B0004B810FF021FA0546002800F04A81D0F8FB
:1069C00088004FF6FF732B8505F11C0B002800F0A3
:1069D000208105F17C0205F178010AF003FAB5F88F
:1069E000763023F4EF6323F0070343F4887343F016
:1069F0000103A5F8763095F8393003F03F0363F0D2
:106A00007F0385F8393095F88E3023F0070385F839
:106A10008E3095F83C3023F00703002785F83C3092
:106A20004FF4C023C5F888312846C5E91277C5F868
:106A30008870A5F88C706F86C5F82E7085F83B704D
:106A40002F65A5F88E71A5F8847111F047FB85F8C4
:106A50005071C5F854910FF05BFC95F8943160F3D8
:106A6000020385F894310FF059FC95F8943160F3E6
:106A7000C50385F8943195F8803167F3410385F8B3
:106A800080310121284610F065F805F1D40011F09D
:106A9000DFF8C4E9189AC4F820B0C5E905772F706B
:106AA000ED6116F0F5F9002840F0AF8094F824303D
:106AB0000121C3F342030DF12B008DF82B300AF0B6
:106AC0002FFB0246002862D098F8011030460EF0E5
:106AD00067FC31235549A360554BB4F86870A0FB9F
:106AE00001010025C01841F107014DA3D3E900239E
:106AF000C4E9055525706560E560FFF701FB20617D
:106B00000BF020FD00F109083FB9357805F00F05BD
:106B1000A5F10105B5FA85F56D0994F824002369FE
:106B200065F3000010F0010584F8240036D0414AD6
:106B300009920020106002253F4A404F04930BAE9B
:106B4000019305920321CDE902000694434600908B
:106B5000089607972A460B950BF0F6FB31460CF08A
:106B6000B9FAA0B9364905914AF2D8330093CDE974
:106B70000300CDE9010007970896069443460122D9
:106B800003210B950BF0C4FB2EE00EF059BB236ADA
:106B9000002B3FF4EFAE0EF011FBEBE6254A29483F
:106BA000049303F247130694029591211360A7FB07
:106BB000000301FB0731214B07931F4B05934FF651
:106BC000FF730992022703930BAE15A3D3E90023A9
:106BD0000B970896FFF794FA4346CDE900503A46E2
:106BE000284603210BF0B0FB31460CF073FA002865
:106BF000CDD194F86A300120034384F86A3014F050
:106C000073FF0020B7E61220B5E60EF0D7FA032096
:106C1000B1E605F18000C5F88800DAE6AFF3008040
:106C20008D49FD1A07000000382C002000CA9A3B4D
:106C30008C49FD1A2C2C00201D54030099260300BA
:106C4000394F0300002AE78448460CF083F90720F7
:106C500091E650460CF08AF948460CF07BF9F6E7CD
:106C600070B590F824308AB0C3F342030D46044651
:106C700001210DF1230016468DF823300AF050FA59
:106C80007178024628460EF08BFB1F491F4AA0FB75
:106C90000131981841F1070119A3D3E90023FFF747
:106CA0002FFA23699842054621D21B1A002201922D
:106CB000174A0293174BA21AA3FB02320221920930
:106CC00000230A4409AE099113490591CDE9033324
:106CD0000321D2B20696009318460BF095FB31467D
:106CE0000CF0F8F938B9256100200AB070BDFBD965
:106CF000C21A0023DBE70C200AB070BDAFF300809E
:106D00008D49FD1A0700000000CA9A3B8C49FD1A04
:106D1000382C002009CB3D8D99260300000000008F
:106D20002DE9F04F05468BB08B46012002219A4693
:106D3000144617F097FF00220221814601200AF035
:106D4000A1F839494FF4D07228460AF02BF8C61C36
:106D5000F6B2364B00953246012100200BF06CFB59
:106D600010F0FD0F0CD0324A3249334840F62F0361
:106D70001EF0FEFC404080F311884FF0030002DF5C
:106D80002E4BA4FB0348204625A3D3E9002341460C
:106D9000FFF7B6F9089506952B690493284B20F068
:106DA0007F47A7FB0331E01A264B07934FF00702FA
:106DB000254B059302FB07114FF6FE7368EB0101AB
:106DC00003934FF47A720023FFF79AF9CDF800B0DD
:106DD000CDE9017053463246012100200BF098FAAC
:106DE00010F0FD0F0CD0124A1249134840F644032C
:106DF0001EF0BEFC404080F311884FF0030002DF1C
:106E0000B9F1000F02D10BB0BDE8F08F01220221D1
:106E100010460BB0BDE8F04F0AF034B8AFF3008075
:106E20008D49FD1A0700000040180020A15D0300F5
:106E300050D6040014D7040088D1040000CA9A3B3D
:106E40008D49FD1A495D030051B0030000000000A8
:106E50002DE9F043C469228D4FF6FF739A428DB03D
:106E600000F088800546204611F0BAFB95F82830DE
:106E7000012B00F00F81022B00F00281002B00F0AB
:106E8000E18094F85071002F40F0FD80E68DB4F859
:106E90003080002E71D1AA8C08F101060023CDE9C3
:106EA0000A33B6B2002A70D094F93930002BC0F200
:106EB00048810023A4F88A3195F82630D90740F19B
:106EC000EF800023A4F88E310DF1270231462046D1
:106ED00011F040F9743000F04681B4F888312BB1DC
:106EE000B34240F20D819B1BA4F88831B4F8843181
:106EF0002BB1B34240F2FB809B1BA4F88431258E5A
:106F000017B9A84500F0EA800135ADB294F8D13048
:106F100013F001065AD1DDE90A130A46002B40F0AE
:106F2000ED80002900F0DC801E461846228DE469C1
:106F30000694CDE903570332A74D0290CDE9001620
:106F4000D2B20121002005950BF05EFA10F0FD0F82
:106F500010D00CF0E9F884420CD0A04AA049A14816
:106F600040F215531EF004FC404080F311884FF0AE
:106F7000030002DF0DB0BDE8F083AA8C4644002375
:106F8000CDE90A33B6B2002A8ED195F82630DA0759
:106F900097D4B4F88A31002B00F08280B34240F2DB
:106FA000FA809B1BA4F88A31B4F88E31002B8BD069
:106FB0009E4280F0DE809B1B9BB20022062BA4F831
:106FC0008E31228600F2AC8001277DE794F93920CA
:106FD0006FF30003002A84F8D13077DB94F8760051
:106FE000C0F3C00100F0070015F0B8FDB4F86E2042
:106FF000B4F86C30134403F2D51303447A4A7B4847
:107000000721E3FB0021104671A3D3E90023FFF71A
:1070100077F8DDE90A1320F07F422069226190426F
:1070200035BF161A801A002000260A46002B7FF46E
:107030007DAF56EA010C7FF479AF002850D0194695
:107040001E4673E794F88E3003F01803182B7FF474
:1070500018AFA18DB4F886218B1D9A42C4BF931F2F
:107060005B1AB4F88211CCBF9BB21346994200F070
:107070008C80A4F88231A4F88431A4F8882100E738
:107080003D2784F85071394620460DB0BDE8F043E5
:107090000FF020BA0023A4F88831A4F88431F0E678
:1070A000B4F88E31002B83D1628DB4F88C3140F26C
:1070B000E24101FB02F242F2107101FB0323013BAA
:1070C000B3FBF2F39BB2A4F88E316FE794F877002C
:1070D000012100F0070015F043FD87E73D4615E765
:1070E000002D4BD000261146304633461EE70023C4
:1070F000A4F88431204611F0CDF800E7304615E7BA
:107100000BF07AFF014600283BD00023A4F8883119
:10711000238DC3801B23037100680BF037FFE5E666
:1071200094F939309342BFF6CFAEB8F1000F7FF437
:107130004BAFD4F878315A08DB0743D4C4F8782130
:10714000C2E628460AAA0BA904F1D409FFF760FB9E
:10715000484610F0BFFD18B3484610F0BBFD18B309
:1071600000232386A5E69DF8271020460FF0B2F9EC
:1071700000E7082120460FF0ADF9FBE6002FB1D162
:10718000F8E60123A4F88831B0E6B4F888110029A4
:107190007FF477AE6FE73E2120460FF09BF9E9E6DA
:1071A000FF200FF057F9D7E70246D4E91E0109F096
:1071B00031FE0028D4D194F83C30580744BFA38D49
:1071C000238676E642F00042C4F87821FCE600BF50
:1071D0008D49FD1A07000000095D030050D6040028
:1071E00078D7040088D104008C49FD1A00CA9A3B64
:1071F0002DE9F04F87B0CDE90423BDF84420037892
:107200000292BDF84820BDF84080BDF84C50468E33
:10721000B0F82E90B0F814B1019104460392002BFF
:1072200000F08E80013EB6B2A368D4F80C71721BD8
:1072300092B2002B009209DAE168626823F0004301
:1072400091422CBF7F18BF18A360FF1A009A638D6C
:1072500013FB02F39BB2B3FBF8F218FB02F080B20F
:1072600083421FFA82FA5AD2C01A40F2E2425E49C1
:1072700002FB00F0A0FB010159A3D3E90023FEF7B4
:107280003FFF20F07F400744D94494F839304D4403
:10729000AD1B554440F2E246DB09E58506FB08F5E7
:1072A00052D1524A5249534840F6BA031EF060FA8E
:1072B000404080F311884FF0030002DF0026A9460A
:1072C000029BA385039BA4F88C3129462046A4F891
:1072D0002A8010F07BFF484BA18D2B44881DB3FB07
:1072E000F5F39AB29042A4F8862102D2521A063AD5
:1072F00092B2019BA4F8822113B10023A4F88E312D
:107300003B464A4631462046FFF70AFD94F8803155
:1073100043F0010384F8803107B0BDE8F08F08FB2B
:107320001231314840F2E24389B203FB01F1A1FB83
:1073300000012BA3D3E90023FEF7E2FE3F1AA3E7E7
:107340004E445E44B6B26FE7226C0099A36CDFF83E
:1073500098B002FB1133A36415F0EAFD814694F85E
:107360007401C0F3420015F0E5FD049B814406FB67
:1073700003F305FB09F9236509F574291F4B09F28D
:107380003F29A3FB09394FEA994303FB0AF0236421
:10739000A5EB0309A36C6A080344963A934228BFFD
:1073A0001346C4E911230023C4F87C31A0FB0B0170
:1073B0000BA3D3E90023FEF7A3FE114B059A3F1A56
:1073C000A3FB0230800A06FB00F005A3D3E90023EB
:1073D000A0FB0B01FEF794FE20F07F4670E700BF94
:1073E0008D49FD1A0700000000CA9A3B50D60400E0
:1073F00008D2040088D104007FC3C90183DE1B4387
:107400005917B7D1000000002DE9F04F0B6891F833
:107410001180D3F80090037F176895B00446C3F33A
:107420008013D0F81E008DF83F30B8F1FF0F638C49
:1074300012900E461546ADF84C300DF1480A49D170
:107440009AE803001090ADF844102346E28D53F8FB
:107450002EBB9B78AB722A81D4F82A306B60D4F8AB
:107460003A30AB6105F1180094F83E300371052104
:1074700009F056FE6B7F00F03F0060F305036B7769
:1074800094F83F30C3F30402AA77A28EEA81012860
:1074900003F01F0392B205D91B3303F01F030B2B1C
:1074A00000D81ABB0022C9F8142095F8203062F3E6
:1074B000000385F82030E5680126584621462671EC
:1074C0000BF05AFD28682E7129460BF05FFD15B0B0
:1074D000BDE8F08F10AA0DF13F01404614F0B0F85E
:1074E0009DF83F3002338DF83F30AEE7336800211E
:1074F0005960E38EEA892B8240F2E24303FB02F2F9
:107500000B92628E0D92384610F074FE94F83F2074
:1075100097F87411520962F3430187F8741115F05A
:1075200007FD0C9097F87401C0F3420015F002FDBE
:107530000C9A0B99104401FB00F0B94A00F5742035
:1075400000F23F20A2FB00204A08800C963A6862B5
:10755000AA6294F8312040F2E24302FB03F3AB63EA
:10756000238FA7F88C31384610F030FE0B99AD4BC5
:10757000AD4AC7F890210B44B3FBF1F39AB2A7F8D8
:107580008621298A881D824204DDC1F57F41FA31B6
:107590000A4492B2A7F882216B68C7F87831234673
:1075A00013F81C2FC2F340120C92DA0700F113817A
:1075B0004FF48073A38399F8260014F037FD04F18B
:1075C0002B03002800F0EB80626AC4F82B20228D88
:1075D0009A80B8F1FF0F00F0E680BAF804301298F4
:1075E000A4F82930C4F825009DF83F30A3771098FF
:1075F000BDF84430C4F81F00A4F82330EB8963863B
:107600002B8AA386B7F88C31E38697F87431C3F3DD
:10761000420384F8383038460EF0FAFBA881E08047
:107620002146584674680BF0A7FCAB89E3801C2305
:1076300023710C9BD4F80080002B40F0BA800C9B87
:107640002377214640460BF0A1FC95F85B00B5F886
:107650005080B5F85240012100F0070015F080FA83
:10766000444404F2D514DFF8CC81044482466F48C8
:107670000721E4FB080131230024BB607C6066A382
:10768000D3E90023FC60FEF73BFD20F07F4038612A
:107690000B9B6D6A0D995D1BF36840F2E24202FBA1
:1076A000013303F2B241A1EB0A0A22460221012072
:1076B00009F0E8FB48460EF06DF80246AAFB080107
:1076C000924655A3D3E90023FEF71AFDCDF80490A6
:1076D000B3685749009120F07F480AF102023A3B13
:1076E000D2B22046434401210AF0E8FE01287FD0AF
:1076F00099F82430DB0766D438460EF089FB4D4BF1
:10770000A5FB03A9044644A3D3E9002350464946F8
:10771000FEF7F6FC484BB668484A079220F07F45D2
:10772000A5FB0331BAEB0300454B059340F2D1139F
:10773000069708933B694FF0000BCDE903B34FF078
:10774000070303FB051169EB01014FF47A72002373
:10775000FEF7D6FC03343A3EE4B2CDE90150CDF851
:10776000008033462246012158460AF0D1FD10F030
:10777000FD0F0CD0334A344934484FF4E9731DF0FF
:10778000F7FF404080F311884FF0030002DF012231
:107790000221104609F076FB15B0BDE8F08FC4F861
:1077A0002B00988015E70022C4F82520A4F8292092
:1077B0001AE76B7F43F040036B77281D13F04AFDF7
:1077C0000123E8833CE70023012200931846114679
:1077D0000AF032FE90E71B4A1D491C48F8231DF0B1
:1077E000C7FF404080F311884FF0030002DFDFE65F
:1077F0000BF09AFC81453FF47BAF124A15491348C0
:1078000040F279231DF0B4FF404080F311884FF01F
:10781000030002DF6CE700BF8D49FD1A070000007E
:1078200083DE1B437FC3C901404B4C008C49FD1ACA
:1078300015B0030000CA9A3B8D49FD1AE5AF03005D
:1078400051B0030000DC040014D7040088D1040008
:1078500024D404005CDC040010B5334C334900230D
:1078600004F1FF3C14F83320072A02EB820E05D8FE
:1078700011F83E206FF3451201F83E201CF833202A
:107880006FF300020CF833200133082BEAD1284AA9
:10789000284C002313700A7863F300020A7091F8F1
:1078A000282063F3000281F8282091F8502063F328
:1078B000000281F8502091F8782063F3000281F8EB
:1078C000782091F8A02063F3000281F8A02091F8BD
:1078D000C82063F3000281F8C82091F8F02063F318
:1078E000000281F8F02091F8182163F3000281F87A
:1078F0001821114A9FED0A7B1370104B83ED007B1A
:107900000F4B236028B1BDE810400E490E4823F00C
:1079100066BFBDE810400C4823F06FBFAFF3008096
:10792000FFFFFFFFFFFFFFFFE1320020A03100203B
:107930006D450020B03000206C450020101A00205A
:10794000A0BB0D0045BD0300E019002000000000B1
:107950002DE9F04F8FB00DF137010446DFF8E0A0BC
:10796000DFF8E0800DF136000BF08EFB9DF836302D
:107970009DF837B00B930AF0E5FDDAF80060A6FB3E
:10798000085629A3D3E9002300278146314628461B
:10799000FEF7B6FBCDE90777069420F07F44DAF8CE
:1079A0000400234B0593A0FB08011FA3D3E9002388
:1079B000FEF7A6FB1F4B20F07F40A4FB03310722FC
:1079C00002FB0411CDE90370E81A66EB01014FF4E4
:1079D0007A720023FEF794FB0097CDE901404B46F5
:1079E0000B985A4603210AF093FC10F0FD0404D0D2
:1079F0006FF08B000FB0BDE8F08F0F480F4A0023E7
:107A00001BF0F6FE20B9DAF80C000FB0BDE8F08FDD
:107A10009DF837209DF836000094234603210AF094
:107A20000BFD6FF07300E5E78D49FD1A07000000BC
:107A3000D9C203008D49FD1A54330020447B0B004A
:107A40006C33002000CA9A3B38B50F4D04460AF04B
:107A500079FDA9680AF078FD696803460B48B3FB15
:107A6000F4F4A1FB00011C4405A3D3E90023FEF7B5
:107A700047FB20F07F40844294BF0020012038BDA6
:107A80008D49FD1A070000006C33002000CA9A3BA4
:107A9000F0B5C468636883B00546002B63D116F067
:107AA0006DFC002016F090FC0021084616F07EFCCC
:107AB00000222521082016F0BDFC454B019301A8AA
:107AC00016F0A0FC434940F25B6016F045FD237AB6
:107AD000C3F3420262F306132046237215F048FCFA
:107AE00014F078FB58BB637A9B071FD127682E6878
:107AF000384614F0D1FF06446A6806F109010120F6
:107B000016F072FE16F030FF20460DF04FFE811C7D
:107B10003246C9B2384614F0CDFF054670BB204648
:107B200014F062FF88B9002003B0F0BD012013F00B
:107B3000CFFF4178821C007816F0F6FDD6E7607A18
:107B400010F0030018BF0120F1E7234A234924481D
:107B500040F22C431DF00CFE404080F311884FF0A2
:107B6000030002DFDFE793F820309A0797D01D4823
:107B7000214616F0C1FB16F0A9FCD4E7164A1A49B3
:107B8000174840F214431DF0F3FD184B0721A5FBE5
:107B9000030301FB05310CA3D3E90023FEF7B0FA80
:107BA0001349024613481DF0E3FD404080F311885D
:107BB0004FF0030002DF1048214616F09DFB16F03F
:107BC00085FC6FF08B00AFE700CA9A3B0000000015
:107BD000D6BE898E5555550030E00400F4D204001D
:107BE00088D104003DCC030008D204008D49FD1A61
:107BF000E0E00400B4E0040041CF03000000000016
:107C00002DE9F041C468A2894FF6FF739A4282B011
:107C100000F0C780054615F0D3FE2B89628AE08A02
:107C20001A4492B21044637FA28280B2411CE18266
:107C30005E064FF00001618204F1180100F18C80B2
:107C400003F03F000B46A17F009004F11F0013F0EA
:107C5000B9FA0646D4E90B231344D4E90D020021F6
:107C60000244E1626163A16AA26394F872208B42CC
:107C700028BF0B4612F00402236377D016F07EFB78
:107C8000002016F0A1FB201D16F0BCFB2389A17A71
:107C900040F25B6043EA014116F05EFC304614F0AE
:107CA0001BFF2146584816F027FB962016F090FD42
:107CB00094F85A2094F85B00C2F3C003002102F04C
:107CC000070200F0070016F0ADFC204615F0DAFEC2
:107CD00027682E68384614F0DFFE06446A6806F10D
:107CE0000901002016F080FD804616F011FE0020EC
:107CF00016F028FE236B94F85B0003F13002A36BAF
:107D000000F00700012103EB420516F0D1FB4544CA
:107D1000054494F85B0000F00700022824D00428F2
:107D20000CBF4FF4BC73282301211D4416F0C2FB85
:107D3000284416F0DFFDA18903313246C9B2384626
:107D400014F0B8FE054698BB204614F04DFED0B99D
:107D5000002002B0BDE8F0810A4603F03F03E18B4A
:107D600013F07CFA064675E71823DDE7D4E917011E
:107D700009F050F8002881D194F8723043F00403E0
:107D800084F872307AE7214A2149224840F255139B
:107D90001DF0EEFC404080F311884FF0030002DF3D
:107DA000D6E71D48214616F0A7FA16F08FFBCFE75D
:107DB000164A1A49174840F24B131DF0D9FC184BCC
:107DC0000721A5FB030301FB05310DA3D3E9002324
:107DD000FEF796F91349024613481DF0C9FC4040CE
:107DE00080F311884FF0030002DF1048214616F09F
:107DF00083FA16F06BFB6FF08B00AAE7AFF30080FD
:107E000000CA9A3B00000000DDDC030058E10400DA
:107E1000F4D2040088D104003DCC030008D2040051
:107E20008D49FD1AACE10400B4E0040019CC030054
:107E30002DE9F0472DED028B9FED498B4A4E84B022
:107E400004464FF02003EFF3118783F31288BFF34A
:107E50006F8FD4F8C8508DB9022104F1E00023F0EF
:107E600007FC002843D100238DED008B029304F121
:107E7000D00239463D481CF099F9E2E7D4F8CC200D
:107E80002B68C4F8C830954208BFC4F8CC30D4F889
:107E9000E03043F00203C4F8E030EB6823F0040361
:107EA00043F00103EB606B6887F31188BFF36F8FBA
:107EB000284698474FF02003EFF3118983F3128887
:107EC000BFF36F8FEB68990723F0010219D4EA60C2
:107ED000D4F8E03023F00203C4F8E03089F31188CD
:107EE000BFF36F8FDB05ACD41CF040F8A9E704F1B9
:107EF000D80500220121284623F0C0FD0028F8D132
:107F0000B1E7306823F00303EB600028E0D00027DE
:107F1000D0F80080BA460028DAD04268954201467F
:107F20000BD1016897B972683160824200D17160EB
:107F300040F808AB1BF036FC3946B8F1000F0BD007
:107F4000D8F8002040460F469046E4E73960726852
:107F5000824208BF7760EBE74246F3E7AFF3008069
:107F6000FFFFFFFFFFFFFFFFEC43002083450020E2
:107F700001481BF019BD00BF9002002007B523F097
:107F8000BAFD4FF47A72A0FB020302FB0131C00B71
:107F9000074A40EA4140106000234FF40042054880
:107FA000CDE900231CF0E0FA002003B05DF804FBEB
:107FB000B81D0020680C0020014B187800F0E2BAD0
:107FC00078440020044B1A78824202D01870FFF7E0
:107FD000F3BF0020704700BF7844002008B523F0AD
:107FE0008AFD4FF47A72A0FB020302FB0131084ABA
:107FF000C30B126843EA41439B1A47F23052934243
:1080000004DDBDE808400120FFF7DCBF08BD00BF6C
:10801000B81D002008B523F06EFD4FF47A72A0FB66
:10802000020302FB0131C00B044A40EA41401060E8
:10803000BDE808400020FFF7C5BF00BFB81D002005
:10804000014B1878704700BF78440020F8B504460B
:1080500010B900252846F8BD0378002BF9D00F4E43
:108060000F4FBE420FD30D4EBE42F2D2306823F006
:1080700052F930B1356821462868FEF7ABF900287F
:10808000E8D00436F0E7306823F045F918B13568D8
:108090002B68A342DED00436E3E700BF70FC040087
:1080A0007CFC040070B5194C194D8CB000220023E3
:1080B00003A920461BF032FA08B10CB070BD2B6842
:1080C000059E5868DDE903121CF001FE0028EDDB77
:1080D000FF238DF81830B6FA86F35B0907908DF808
:1080E000203023F008FD4FF47A72A0FB020302FB5C
:1080F0000131C00B40EA4140C90B8DE8030006ABDB
:10810000CDE90A010FCB00F057FACFE7700D002040
:10811000CC1E00201FB50A4C2468A46884420DD1EF
:1081200083F00103CDE901120393064800220023E6
:1081300001A91BF09DF904481BF036FC04B010BDEA
:10814000CC1E0020700D0020BC1E00201FB5002397
:10815000CDE90233044B8DF80C0001A801931CF00B
:10816000E6FD05B05DF804FB14C90400044B1A6871
:10817000044B9A4214BF6FF012000020704700BFFA
:10818000CC1E002000C9040038B5044628B3144DA5
:108190002B6883421FD02BB1986818B183685B6845
:1081A00003B198470F49104B8C4214BFED210021B9
:1081B000402200201CF0A5FD00280DDBA0682C60EB
:1081C00048B1836809491B6898472B689868836899
:1081D0009B6803B19847002038BD6FF01200FBE7A1
:1081E000CC1E002000C90400BC1D00201581020027
:1081F00038B5054648B90648FFF7C6FF041E02DB3E
:108200002846FFF7A3FF204638BD6FF01504FAE7B4
:1082100000C90400F7B50C4615460D4901AA1E46D3
:108220001DF0D4FD68B1019B6BB9012C0DD1094F34
:10823000224639463046A847002802DD3878FFF745
:10824000D7FF03B0F0BD0020FBE76FF01500F8E7A3
:10825000DCE404008C0B00200148FFF795BF00BF51
:1082600000C9040008B50749074823F074FA074A13
:10827000002342F8043B0133402BFAD1BDE808400B
:10828000FFF7EABFA5800200BC1E0020BC1D002035
:1082900030B51C4C04EB00148FB0606883683A2141
:1082A000DB68984758BB60686189836804AD1B69C7
:1082B0002A46984718BB95E803000123069307ABAD
:1082C00083E803006389ADF8243023F014FC4FF4F5
:1082D0007A75A0FB053205FB0121DB0B43EA414324
:1082E000C90BCDE90A31237B8DF830300EAB13E991
:1082F0000F008DE80F0006AB0FCB00F083F90FB035
:1083000030BD00BFB002002010B5134CBFF35B8F2F
:1083100054E8002F22F0010144E800100028F7D1B2
:10832000BFF35B8FD20702D50020FFF7B1FFBFF389
:108330005B8F54E8003F23F0020244E8002100294B
:10834000F7D1BFF35B8F9B0704D5BDE81040012038
:10835000FFF79EBF10BD00BFD01E0020064901EBF5
:108360000012506830B183689B68114608310BB128
:10837000024A1847704700BFB00200208183020004
:1083800010B5104C0C1B102C1BD8241123F083F8B3
:1083900090B1BFF35B8F01230B4AA34052E8000F5B
:1083A000184342E800010029F8D1BFF35B8F07486A
:1083B000BDE810401BF0F8BA2046BDE81040FFF7BA
:1083C00067BF10BDB8020020D01E0020A002002010
:1083D000F8B50F4D0F4E761B07460C4605EBC10551
:1083E000C6F3C706A64201DC00200CE02A683B6801
:1083F0009A4209D13C716B6838461B68984718B19E
:10840000431E012BF0D9F8BD01340835EAE700BF5F
:1084100080EC0400A8EC040000B58BB0064B074AC2
:10842000282168461CF078F905490122684601F0C8
:108430003FFF0BB05DF804FB24E504002EE50400CB
:10844000794400202DE9F8434768044600254FF0A1
:1084500001087B68AB420DD82149224823F0BFF9BF
:10846000A3681B680BB120469847398939BB0020A7
:10847000BDE8F8833A6802EBC50352F83500197974
:10848000DB88D0F810C0D0F80890DCF80060DA077C
:1084900054BF43F4B01383F4D01323F4801208FACA
:1084A00001FEDB074CBF46EA0E0626EA0E06CCF8B4
:1084B0000060D9F80030984770B90135C9E740F23B
:1084C000E7304FF47A72002300EBC1300021FDF752
:1084D00017FE1BF0CDFDCAE76FF00400C8E700BF30
:1084E00019840200C80F002008B5074B5A784AB912
:1084F00001221A700548002200231BF0BDFA04482F
:108500001CF02BFC002008BD79440020C80F00207F
:1085100058C4040008B54FF4F012002302481BF0C1
:10852000DFFA00EAE07008BDC80F0020F7B50C467E
:108530001646114901AA1F461DF048FCB0B1019B27
:10854000A3B9012C15D10D4D224629463846B04716
:10855000002806DB2B780A486C7023B11CF0FDFB69
:10856000002003B0F0BD1CF014FCF9E76FF001002F
:10857000F7E76FF01500F4E724E5040079440020E4
:1085800058C404001FB50023CDE90233044B8DF815
:108590000C0001A801931CF0CAFB05B05DF804FBB8
:1085A00038C904000268034B9A420CBF083000200F
:1085B000704700BF38C9040084B030B589B00CAC36
:1085C00084E80F00002301930CAD084B00930FCDFE
:1085D00002AC0FC495E8030084E8030068461CF071
:1085E000A6FB09B0BDE8304004B070473CC90400A8
:1085F0000268034B9A420CBF08300020704700BF4E
:108600003CC9040084B030B58BB00EAC84E80F00D8
:10861000002301930EAD084B00930FCD02AC0FC4A5
:1086200095E80F0084E80F0068461CF080FB0BB053
:10863000BDE8304004B0704740C904000268034BF5
:108640009A420CBF08300020704700BF40C90400A8
:108650001FB50023CDE90233044B8DF80C0001A8AF
:1086600001931CF064FB05B05DF804FB44C90400F1
:1086700082B038B504A981E80C00054611481AF00B
:10868000B3FC0446A0B16B68012B0CD0022B05D0C3
:10869000A3B9BDE8384002B01CF0ACBB1CF0B1FB84
:1086A00000282046F5DCBDE8384002B01CF09BBB3A
:1086B0006FF00400BDE8384002B070476FF08500ED
:1086C000F8E700BF24E5040082B010B502A981E8F4
:1086D0000C0004460B481AF087FC78B16368022B43
:1086E00004D00020BDE8104002B070471CF089FBA8
:1086F0000028CCBF002001206060F2E76FF004008A
:10870000F0E700BF24E504001FB50023CDE90233E4
:10871000044B8DF80C0001A801931CF008FB05B078
:108720005DF804FB84C9040008B500F0C9FABDE88F
:108730000840014923F03CB8D002002007B50848A2
:1087400022F0E9FD48B14FF4F0120023CDE90023F7
:108750000448002200231BF007FF03B05DF804FB70
:1087600094C40400A00C002008B5FFF71BFF10B94B
:108770006FF0850008BDFFF763FC38B10138C0B267
:108780000128F5D8034823F0FDF901E0FFF7D6FFF3
:108790000020EFE7A00C002037B50E4CA5682D2176
:1087A000EB682046984790B92D212B696A462046F0
:1087B000984760B9084C00982378834207D0C0B22C
:1087C000207001F04DFD10B92078FFF79DFF03B038
:1087D00030BD00BF94C404007B44002008B50548A8
:1087E00022F099FD18B1FFF7A9FF002008BD6FF036
:1087F0001200FBE794C404001FB50023CDE9023347
:10880000044B8DF80C0001A801931CF090FA05B000
:108810005DF804FB8CC9040008B5BDF808101944C4
:10882000012908DC3BB1054B127805481A701BF092
:10883000BBF8012008BD6FF00600FBE77C44002078
:1088400050030020014B1878FFF7D2BC7C44002075
:108850001FB50C240294044C0194BDF818400094F8
:1088600020F0F3FE04B010BDA14400201FB5102479
:108870000294044C0194BDF81840009420F0E5FEE9
:1088800004B010BD9144002007B5064B0093064983
:10889000064805234FF43E721BF08CF8002003B00D
:1088A0005DF804FB94C9040088450020F80F0020FF
:1088B00070B50F4D0F4E8AB000220023694628463E
:1088C0001AF02CFE044608B10AB070BD21461822E9
:1088D00004A823F0A6FC10230DEB03012046059607
:1088E000CDF818D0ADF81C3007F000F8E4E700BF71
:1088F000A00D0020B0C90400F0B50E4E0E4D0F4F74
:1089000087B00C490022002328461AF007FE0446CF
:1089100008B107B0F0BD21461822684623F081FC5B
:108920000C2369462046CDE90176ADF80C3006F0FF
:10893000DDFFE6E7A1440020D00D00203CCA040082
:108940001FB50E490E4840F6CD4200231AF090FDA7
:10895000044670B110F10B0F08D1002200236946C4
:1089600007481AF0DBFDFFF7EBFF0446204604B092
:1089700010BD0449044822F01BFFF7E79144002092
:10898000A00D0020F0020020F80F0020C2080549C9
:1089900000F0070001238340885C03438B54FFF7FA
:1089A000CFBF00BF9144002010B4C108064C00F0B6
:1089B0000700635C0122824023EA020363545DF8EE
:1089C000044BFFF7BDBF00BF9144002030B589B014
:1089D00001AD85E807000F4840F6CD420023294647
:1089E0001AF046FD044680B110F10B0F0AD10022A7
:1089F000002305A907481AF091FD95E80700FFF745
:108A0000E5FF0446204609B030BD0349034822F083
:108A1000CFFEF7E7D00D0020E0020020F80F002085
:108A2000014B1970704700BFAE44002010B5002004
:108A300003F04AFC044610B9024801F0C9FC204684
:108A400010BD00BF6003002010B5074804F050FFC0
:108A5000064805F0CBF8064B064800241C701AF0B7
:108A6000A3FF204610BD00BF88030020780300202C
:108A7000AD440020A8030020094BB1FA81F010B5E5
:108A800040090C461870FFF7B7FE3C2C07D1054B88
:108A9000054801221A70BDE810401AF085BF10BDCC
:108AA000AF440020AD440020A803002070B5037837
:108AB0008AB004460E4607AD032B20D8DFE803F04A
:108AC00002191B1D11492846FDF78EFC0595637898
:108AD0000493A3780393E378029323790193637952
:108AE0000093A3790A4A1E2130461BF015FE0AB0F6
:108AF00070BD0849E7E70849E5E70849E3E7084AA0
:108B00000A2128461BF008FEE0E700BF55E60400F6
:108B10007EE604005CE6040063E604006DE6040003
:108B200077E6040010B588B01FF076FC6946FFF7C1
:108B3000BDFF0024054B20461C70FFF75DFE044B73
:108B400004481C701AF030FF08B010BDAF4400207C
:108B5000AD440020A803002070B5204E204B3068A3
:108B6000B2881C781F49B3798AB003AD0390ADF881
:108B7000102000202A46AB7107F07EFF3146072205
:108B8000284623F002FB184B0646D0B1ACB90320AF
:108B90002246214601241C700023CDE90602CDE9BE
:108BA0000815ADF814308DF8163000931A461946A2
:108BB00005A804F0C9F80AB070BD1320A022F02166
:108BC000E8E70A4D18700FCD05AC0FC42B68236081
:108BD0000749009633460322EAE700BF51E8040044
:108BE000AD440020F58B0200AE44002040C70400D5
:108BF0008CCA040038B507220C460649054623F006
:108C0000C4FA28B12B682360AB88A380AB79A37129
:108C100038BD00BF51E8040008B5044801F048F829
:108C2000002818BF6FF0150008BD00BF598C020066
:108C3000084B1B780B2B4FF001000AD8984010F41A
:108C4000CD6F05D110F4016F0CBF012000207047DB
:108C5000022070473A0C00200A2808B5024613D0BB
:108C60000A4B0B491870FFF7E3FF02280AD10B7873
:108C7000032A08BF43F001030B70BDE80840054814
:108C80001AF092BE0023F7E708BD00BF3A0C00209F
:108C9000B0440020B803002007B5064B00930649F6
:108CA00006480A234FF440721AF084FE002003B0F5
:108CB0005DF804FBA4CA040080480020E0100020F6
:108CC00000487047E010002010B5094C0A4491425A
:108CD00000D110BD11F8013B584003090001E35CCD
:108CE000C0B2434018091B01205CDBB25840EEE7DC
:108CF000C8E60400014B1B68184700BFC8030020EA
:108D000030B585B004460D4610220021684623F098
:108D100088FA02238DF802302A46044B019321463B
:108D200068461BF089FD05B030BD00BFF58C020020
:108D300080B505460E46174698461BF0CDF903460A
:108D400023F08CFADFF81890044649F800304246C8
:108D500030463946A84754F8090001F07DFF00BFAE
:108D6000080000002DE9F047058B044628079046CF
:108D700011D4022905F0070540F0CD8020461CF0F3
:108D8000CDFB78B10138218B042811D8DFE800F041
:108D9000C3106D85950001290CBF45F0100545F005
:108DA0002005258388F31188BFF36F8FBDE8F08716
:108DB00001F0070AAA4500F0A6800027B9463E4602
:108DC000A368002B00F0BD8041F00801218388F3E7
:108DD0001188BFF36F8FA168002900F0BB800D6878
:108DE000002900F0B780D1F804803346524620466F
:108DF000C047002D76D02B6829461D46F0E701F0CC
:108E000007035A1F012A1BD8002221F00701062B55
:108E1000276889B2C4E9002209D13B4603E0628B8E
:108E2000013262831B68002BF9D141F002012183DA
:108E300020461CF073FB00287BD041F0200177E036
:108E4000042B0AD121F0070189B2218320461CF0AE
:108E500065FB10B141F020012183218B01F0070A4D
:108E6000AA4550D00027B946AAE7236921F0070197
:108E700041F00601062DD3F8009021832DD1B9F1E0
:108E8000000F40D041F00801218388F31188BFF31F
:108E90006F8F3A492046C84729E021F0070123692E
:108EA00041F0040189B2042DD3F804902183E6D067
:108EB00000273E464FF0040A82E721F007012369AC
:108EC00041F0050189B2052DD3F808902183D6D051
:108ED00000273E464FF0050A72E700273E464FF056
:108EE000060A6DE72B4687E7B9F1000FD1D14FF0A5
:108EF0002003EFF3118883F31288BFF36F8F238B66
:108F000023F008032383258BEA062ED525F01003D2
:108F1000238305F007056669218B002EBFF66FAF2E
:108F200000232768C4E9003321F0070141F0010163
:108F30002183218B01F0070AAA454FF000097FF435
:108F40003FAF002F9BD041F00801218388F31188A7
:108F5000BFF36F8F002FC7D03D6839463346524666
:108F600020461CF007FB2F46F4E7AB067FF51AAF4F
:108F700025F02003238305F00705FFE6A155040033
:108F800008B504464FF02002EFF3118382F31288F4
:108F9000BFF36F8F18F03AF9204602F00DF903483D
:108FA0001CF0C9F801F0C8FFFCE700BFD8E60400D8
:108FB00018F056B92DE9F7430F4606460821C06A56
:108FC000DFF850901CF06FFC3C68241A80463C602F
:108FD00004EA0905AC4203D8002003B0BDE8F083E1
:108FE00008236A46214630461CF0D0FB0028F4D105
:108FF000694630461CF061FC40B1BDF80230BDF856
:1090000004203C6005EA090513441D44A4EB080450
:10901000E0E700BF0000FFFF2DE9F047044688B0FD
:1090200000F11407384622F055FAA06A8368DB681D
:109030009847E06228B96FF01505284608B0BDE8EA
:10904000F087A06A8368DB6898470368013B1F2BA1
:10905000F1D8A06A216805AA21F046FC0028EAD1CF
:10906000A589002DE7D0069BB5FBF3F203FB125553
:10907000002DE0D1E389012BDDD9E36A009593F857
:1090800004904FF0FF334FF0FF3238461AF0A0FA49
:10909000E06A08211CF007FCA8460646E3891FFA8F
:1090A00085FA534508D8E389434523D138461AF059
:1090B00009FB6FF02C05C0E7A1892B04891B13FA6B
:1090C00081F14A460823204600911CF0ADFB78B19F
:1090D000694620461CF068FB08F101080099082346
:1090E0004A4620461FFA88F81CF09EFB0028DAD07A
:1090F0000135D3E753450BD1009908234A46891B14
:1091000020461CF091FB18B9694620461CF04CFB28
:1091100069462046FFF74EFF054618B138461AF05B
:10912000D1FA8AE7009B63604FEA13484FEA084888
:10913000C4F80880D4E9011399420FD3082301AA87
:1091400020461CF023FB05460028E7D101AB13F8AD
:10915000012B914533D10135082DF8D163681B0CE3
:109160001B046946204600931CF01EFBA38900994E
:109170004A4620461CF058FB051ECFDB636876D0BC
:1091800006EB03084FF6FF79A389CDF800801FFA9C
:1091900088F29B1B9A422ED300236168002B43D098
:1091A000090C09040091204669461CF0FDFA00995B
:1091B00020461CF05EFB0546002D74D0AEE701A9E9
:1091C00020461CF07AFB626810B9921B6260B1E71E
:1091D000BDF80850BDF80610E06AC4F808802944BC
:1091E0001CF061FB40449042A060EED1002DECD019
:1091F0006FF01C0568E0082303AA414620461CF0D6
:10920000C5FA0546002889D103A920461CF055FB64
:1092100030B1BDF80C304B4502D1BDF810300BB168
:10922000B044B1E70123B8E720461CF022FB054615
:1092300000287FF473AF6368264AA18913400B446A
:10924000A3EB460363601340A36020461CF019FCA7
:10925000B1E75B1A4A4620461CF0E6FA051EFFF607
:109260005DAF08D0E26AA36812681344A360D4E932
:1092700001318B42EDD86168A38901EB46029A4225
:109280009AD1DFF85080A26801EA08039A4293D08D
:1092900020461CF0EEFA054600287FF43FAF6368D5
:1092A00003EA0803A360A389A288A3EB46039A42BA
:1092B00006D038461AF006FA012323740025BCE6CE
:1092C00020461CF0C7FB054638461AF0FBF9002D76
:1092D000F2D0B2E60000FFFF2DE9F04F1D46037CFF
:1092E00089B0044689469046002B00F0BE80C26AD1
:1092F000082110461CF0D7FA2946824610461CF079
:10930000D2FAA389A3EB8A039D42074600F2B080FC
:109310001DB1B8F1000F00F0AB806368039304AA9D
:1093200003A92046DDF80CB01CF0FFFA0646002821
:1093300064D1BDF810304B4505D06268039B9A425A
:10934000EDD1E5B95AE004A920461CF0B6FA002890
:10935000F3D0BDF81200BDF8143075B19D420ED1A6
:109360004FEA1B41090401442B46424620461CF0AB
:1093700028FA002803DC064640E0002B3ED0002FF0
:1093800040D104F1140301934FF0FF320198DFF84C
:10939000E8B04FF0FF331AF01BF9E3899E4261D029
:1093A000D4E90123F9188A422FD3ADF81A3006A860
:1093B000FF238DF81E30ADF81890ADF81C501CF04E
:1093C0002AFAA1682B46424620461CF0F8FA2946A4
:1093D0008246E06A1CF067FAA2680244A260BAF111
:1093E000000F07D106A920461CF023FB002814BF5C
:1093F0008246AA4601981AF065F95646304609B0E9
:10940000BDE8F08F5744BFB2BBE7E06A08211CF00B
:109410004AFA4FF6FF73ADF8183000218DF81E3070
:10942000A389ADF81C10111802EA0B021A44101A95
:10943000606006A8ADF81A101CF0EDF906A92046E8
:109440001CF0F7FA211D20461CF0AEF9636803EA10
:109450000B03A36020461CF014FB82460028C9D1F0
:1094600001369AE76FF01B0AC4E76FF00C06C5E7F8
:109470006FF01506C2E700BF0000FFFF014B03605D
:1094800000207047ACCA040070B5114B1C680D4633
:10949000DCB1104B196800238B4202DB6FF0010036
:1094A00070BD224612F8106B864202D0013314467A
:1094B000F2E7E06810B96FF01200F1E721F02BFF3E
:1094C0000028F8D02C600020EAE76FF00C00E7E7F6
:1094D000CC030020ACCA040070B588B005460C4629
:1094E000C0B269461646FFF7CFFF00281BDB009885
:1094F000C8B143680293836822680195CDE90336B9
:109500000023CDE906230593C5681CF0F2FB6DB17D
:109510002846084901AA21F0EBF9079808B9059BEC
:10952000236008B070BD6FF01500FAE76FF012000D
:10953000F7E700BFF55C0400F0B40C4B0C4E5F6A1B
:109540000C4BB34203D36FF08500F0BC70475D68ED
:10955000BD4209D31C693CB195F802C00579AC4500
:1095600002D12346F0BC18472433EAE7D41E00207A
:10957000C50F0020C50F00202DE9F047134CDFF880
:109580005080DFF8509005460E461746444503D3F9
:109590006FF08500BDE8F0876268D9F824309A4200
:1095A00012D3A36983B190782979884205D13A46CC
:1095B00031462846BDE8F04718475279012A03D1C1
:1095C0003A463146284698472434DFE7C50F002045
:1095D000C50F0020D41E00202DE9F0410B4CDFF810
:1095E000308005460E461746444502D36FF085008D
:1095F00009E063690BB92434F6E73A463146284658
:1096000098470028F7D1BDE8F08100BFC50F0020C2
:10961000C50F002010B5044621F02AF810F1780F8C
:1096200000D050B9054A20461CF086FBD2F8C43061
:1096300023EA0003C2F8C430002010BDD41E00206D
:10964000024B00221A605A60704700BF8F1F002033
:1096500070B50B4B0B4CA34201D3002070BD196AAF
:109660001E7F00220439D5B2AE4201D82433F2E77E
:10967000013211F832508542F5D10120EEE700BFEA
:10968000C50F0020C50F002008B509480378C3F3B3
:1096900041130A3350F823303BB100F1080200F1C6
:1096A00010019847C043C00F08BD1846FCE700BF33
:1096B000D41E002004282DE9F14FDFF8A0900446C5
:1096C0000F4616D001282DD1DFF88C8098F8B930DC
:1096D00043B300F065FD1F4D4D4520D2D5F820B0B5
:1096E0004FF0000A2B7F5FFA8AF6B34204D8243584
:1096F000F2E7FFF7A5FFE7E70BEBC6060AF1010A61
:10970000307920F0B5FF024630791CF015FBD8F80F
:10971000C430002A23EA0003C8F8C430E2DA002388
:1097200088F8B9300B4D4D4508D30B4B1B6A6BB114
:109730003946204601B0BDE8F04F1847EB681BB131
:109740003A462146284698472435ECE701B0BDE863
:10975000F08F00BFC50F0020D41E0020C50F0020D1
:1097600073B5C4B263060D468DF8074007D0204696
:10977000FFF76EFF78B10D4B93F8BA0058B10B4E5E
:10978000204655B116F0DEF8F3691BB10DF1070163
:1097900008209847012002B070BD16F0FBF8F3696D
:1097A000002BF7D00DF107010920F2E7D41E0020AD
:1097B00073B586788DF80060037942791C4C43EAD2
:1097C0000223ADF80230C378304603F003038DF86E
:1097D00004301CF0B1FAD4F8C430184205460BD05E
:1097E000304600F0BFFC3046FFF714FF21F053FE77
:1097F00010B996201AF056FC684616F07FF810F162
:10980000780F03D010B1002002B070BD9DF80000A9
:1098100016F0FCF810F1780F01D00028F3D1D4F83D
:10982000C43001202B4384F8B900C4F8C430EBE7FE
:10983000D41E00202DE9F047A34EB36904460F461D
:109840001546FBB9237803F01F03012B00F09D8020
:10985000022B00F0048133BB94F900002A68617880
:10986000002834DA062912D008292BD0D9B90123CF
:109870001370517096F8C3305B0043F0010313700E
:1098800002232AE198470028DCD100200DE06288FD
:10989000100A011F0129844605D9072803D8716AD7
:1098A000D2B20C781CB96FF01500BDE8F0874E7885
:1098B000664503D19A4200F00B8101332144F0E761
:1098C0000B780AE196F8BA301370012305E10139EB
:1098D0000829E8D801A353F821F000BF75990200C8
:1098E000A798020083990200A7980200019902003C
:1098F000A7980200A7980200A79802000D990200FD
:10990000A07815F0E9FF0028BFD0CCE76388756A1E
:1099100063BBFFF795FE638886F8BA30F369002BC6
:10992000B3D06A4903209847AFE76B78042B10D077
:10993000052B11D0022B04D16F796388BB4208BF7D
:1099400001202B781D442B78002BEED10028AAD0C3
:10995000DFE795F80380F4E76388BB42F1D1B8F103
:10996000000FEED12846FFF723FFEAE7FF2700208C
:10997000B846E8E76388012B95D1002386F8C33009
:1099800083E76388012B8ED1F8E796F8BA30D5F8D3
:1099900000C0002B87D0756AA38894F804E02A469B
:1099A000107800283FF47FAF5178022904D192F853
:1099B0000480F04500F293800244F1E78CF8002027
:1099C0008CF80120396060E7154494E00B2A7FF49D
:1099D0006AAF00274FF0FF08C146BA4606E06B7831
:1099E000042B0FD0052B21D02B781D442B78002B76
:1099F000F5D1F36913B1514607209847002F7FF442
:109A000044AF50E795F80280A38895F803909845F5
:109A1000EAD163889945E7D1B8F1070F1CD806EB66
:109A20000803AA4683F8BB900127DDE7A3884345D6
:109A3000DAD1A3784B450AD0AF78384600F092FBD4
:109A40003846FFF7E7FDB0FA80F77F09CCE72846F4
:109A5000FFF7AEFE0746C7E7AA460027C4E794F91A
:109A600000206378002A18DA002B7FF41CAF2479D9
:109A70002D6863060AD02046FFF7EAFD00283FF470
:109A800012AF96F8BA30002B3FF40DAF29462046AE
:109A900015F0A0FF00236B70F2E6012B08D0032B1A
:109AA0007FF401AF6388002B7FF4FDAE012103E05A
:109AB000618800297FF4F7AEA088FFF751FE0028E7
:109AC0007FF4E3AEEFE600BFD41E00208E1F00201F
:109AD000022829607FF4F4AE4B883B60D5E694F908
:109AE000000062780028BFF671AF002A3FF466AF2D
:109AF0000A2A7FF4D8AE2A78002A3FF4D4AE6978D7
:109B000004297FF461AFA9788B427FF45DAF072B06
:109B100096BF9B19002393F8BB308CF80030D4E635
:109B200013B5164C237DF3B9E268A168019201AB2D
:109B300080201CF00FF9019AA3681344A360E36826
:109B40009B1AE3606BB962B12369E2889A4208DD2F
:109B500094F8C82093FBF2F102FB11330BB90123F7
:109B6000237502B010BD00231A46194680202375C4
:109B700002B0BDE8104015F073BF00BFD41E002036
:109B800030B585B0002302460D460193002858D118
:109B9000002935D108220B460DEB020120F081FD92
:109BA000002804DA802015F0CDFE05B030BD2A4C27
:109BB000029A2260039A626004F13802A2609DF961
:109BC0000820BDF80E302575002AC4E903550ADBCC
:109BD000802B04D9802015F0B5FE0020E3E713B1F7
:109BE000C4E90333E1E7FFF74FFD0028DAD0E2884C
:109BF00023699A42D4BFE260E360FFF791FFD4E7A4
:109C0000154CD4E90215002D01AB04DC20F049FD10
:109C10000028CADAC6E72A4620F043FD0028D9DB2F
:109C2000019AA3681344A360E3689B1AE360002BC6
:109C3000BBD104F13803A360FFF726FD0028DCD177
:109C4000B0E78028B1D1044BDA68002AD5D11B7D5A
:109C5000002BD2D1A9E700BFD41E0020054B064A35
:109C60009A62064ADA62064A1A63064A58629A619A
:109C700000207047D41E002035980200399502005C
:109C8000D99502007995020010B5084B93F8B840B9
:109C900034B900F0E3F830B1FFF7E0FF204610BD23
:109CA0006FF07700FBE74FF0FF30F8E7D41E00209D
:109CB0002DE9F341414D04466F6A41484FF0FF32B0
:109CC0004FF0FF3319F084FC95F8B860002E6ED188
:109CD0003C482C62E86115F0DDFF15F0CBFD041E59
:109CE00049DB00F081FA041E45DB7B78012B61D152
:109CF000FB79002B5ED0684685F8C830ADF802309D
:109D00008DF804608DF8006015F0F8FD041E32DB5C
:109D1000802768468DF8007015F0F0FD041E2ADBE0
:109D20002949304615F0A2FF041E24DB2649384697
:109D300015F09CFF041E1EDB244CDFF89480444584
:109D400020D3002015F062FE041E14DBD5F8C430C9
:109D5000802043F00103C5F8C43015F057FE041EFF
:109D600009DBD5F8C43043F48033C5F8C43001238F
:109D700085F8B8300024124819F0A4FC204602B03F
:109D8000BDE8F081276A0026227FF3B29A4201D80B
:109D90002434D4E707EBC30257F83310107915F0D9
:109DA00065FF01360028EFD04FF0FF34E3E76FF096
:109DB0007704E0E76FF01504DDE700BFD41E002054
:109DC0005C0D0020B5960200819B0200C50F0020AB
:109DD000C50F002030B51F4B8BB005AA03F110054D
:109DE00018685968144603C40833AB422246F7D1B9
:109DF0001B7823701022002101A822F012FA1222EF
:109E00000021154822F00DFA102101A820F0F1FDE3
:109E100000281BDD0828B8BF0820093801AB0E490F
:109E20001A18002012F8013F0AAC04EB131403F0D7
:109E30000F0328336B44013014F8144C13F8143C0E
:109E40000C7008284B7001F10201EBD102480BB0F5
:109E500030BD00BF01E70400B14400202DE9F04F00
:109E6000704C87B04FF0000B00264FF0011AB0463F
:109E70003546B14623782BB96B4B02349C42F3D163
:109E8000684833E06378052B1BD8DFE803F09003C4
:109E9000C8901D3B402304A88DF810B0ADF81230D7
:109EA0008DF814B020F0CFFB40B1082304A8ADF822
:109EB000123020F0C8FB08B1ADF812B0BDF8123076
:109EC000E37123781C44D5E7E378002BF9D1A3781C
:109ED0007BB108F101085FFA88F8F2E76B689C42F1
:109EE00009D02435514B9D42F8D3002007B0BDE87E
:109EF000F08F4F4DF6E7AB68002BEAD04146204685
:109F00009847E6E7002DF0D000222B7F9A42ECD252
:109F1000296AA07801EBC2010B79984201D0013285
:109F2000F3E70127E07800F003008DF814002079B2
:109F300094F805C040EA0C20ADF8120094F9020034
:109F40000028FBB228DA07F110004FF0010C0CFAE0
:109F500000F010EA0A0F26D143F080008DF81000BF
:109F600004A8CDE90213019220F06DFBDDE9012187
:109F7000039BC0B99DF81020A27012F0800F18BF8B
:109F800010330A7118BFDBB24FF0010214BF9A40C0
:109F9000BA404AEA020A94E70120B84010EA0A0FE0
:109FA00001D11846DAE70137102FBBD1B7E7032EEE
:109FB0001DD1FFF70FFF074668B1FCF71DFA102807
:109FC00009D13846A31C07F1100250F8041B43F8CE
:109FD000041B9042F9D123786FF00201E218091BAB
:109FE00004EB5303D14213D50136F6B269E7002ED4
:109FF000F1D1B9F1000F3FF478AFA4EB090389F870
:10A000000230C3F3072389F8033089F80480EBE7B3
:10A0100002F801BC13F8010902F8020DE2E7A146BB
:10A020004FE700BF680F0020C50F0020C50F0020BC
:10A03000C50F002010B5094B00211A461C78844238
:10A0400005D15C681CB1482303FB012010BD013120
:10A05000042903F14803F1D10020F7E7A01F0020F5
:10A060002DE9F34150F8303C10F8346C10330446BD
:10A0700010D1036950F8282C990739D5EAB913F0A3
:10A08000040304D11A46194630461BF063FE002330
:10A0900044F8303C54F8303C10330BD054E9097587
:10A0A00054F81C8C21F0F7F900284CD02C4821469C
:10A0B00021F07EFB02B0BDE8F08150F82C1C01AB12
:10A0C00030461BF047FE10B16FF01503E0E7019A30
:10A0D00054F82C3C134444F82C3C54F8283C9B1A6C
:10A0E00044F8283C54F8243C134444F8243CD1E779
:10A0F00050F82C1C01AB304615F02EFD0028E3D1A2
:10A10000019D54F82C3C2B4444F82C3C54F8283C3A
:10A110005B1B44F8283C54F8243C2B4444F8243C72
:10A12000002DB4D0304615F0BBFDB5FBF0F303FBBA
:10A130001055002DABD154F8283C002BA7D0304649
:10A1400015F052FDA6E744F8200CA4F1180019F010
:10A1500029FB002DAED0424639463046A847A9E734
:10A16000B01C002010B54FF02003EFF3118483F3EF
:10A170001288BFF36F8FFFF75DFF50B14368103354
:10A1800007D16FF08B03436000F13401034821F0E5
:10A190000FFB84F31188BFF36F8F10BDB01C00203C
:10A1A00070B50F4C04254FF02003EFF3118683F3B5
:10A1B0001288BFF36F8F6368103307D16FF08B0382
:10A1C0000848636004F1340121F0F2FA86F3118843
:10A1D000BFF36F8F013D04F14804E4D170BD00BFAF
:10A1E000A01F0020B01C002070B50A4C0A4E0025AC
:10A1F0003146204621F0AFFA0122A4F118001146A1
:10A20000013521F025FA042D04F14804F0D1002095
:10A2100070BD00BFD41F002061A002001FB507243D
:10A220000294044C0194BDF8184000941FF00DFAFC
:10A2300004B010BD3B0C002010B5084C86B024784B
:10A240008DF81740012402940DF117040194BDF814
:10A25000204000941FF0F9F906B010BD420C002018
:10A2600000B589B064288DF8070019D80E4B182264
:10A270001870002102A821F0D4FF0C4B03930DF1BC
:10A280000703049302A901230020ADF8143005F060
:10A290002DFB10F1800F08BF002009B05DF804FB12
:10A2A0006FF01500F9E700BF420C002090CB0400CE
:10A2B0002DE9F0410F4B1C6805460E461746ACB120
:10A2C0004FF0FF324FF0FF330B4819F081F963680C
:10A2D0003246D3F8088029463B462046C04704460C
:10A2E000054819F0EFF92046BDE8F0816FF0010450
:10A2F000F9E700BFC0200020480D002000230360C4
:10A30000044B5A6812B9C3E90000704710605860E6
:10A31000704700BFC4200020014B1860704700BF89
:10A32000C020002030B585B000230546CDE90233BA
:10A3300001904FF0FF330C484FF0FF3219F048F90D
:10A340000A4B1C684CB9284600F0CEF80446064873
:10A3500019F0B8F9204605B030BD636820461B6887
:10A3600001A998472468EDE7480D0020C42000208B
:10A370001FB5CDE9010103924FF0FF330A484FF0BA
:10A38000FF3219F025F9094B1C682CB9064819F061
:10A3900099F9204604B010BD636820461B6801A9E6
:10A3A00098472468F1E700BF480D0020C420002032
:10A3B000024B0022C3E90022704700BFC4200020E6
:10A3C000024B0022C3E90022FFF7F2BFCC2000209D
:10A3D00070B51B4C1B4E0546B44212D31A4E1B4897
:10A3E0004FF0FF324FF0FF3319F0F2F834687CB1D0
:10A3F000286854F8141C143CFBF7ECFFC8B16469DE
:10A40000F5E721682868FBF7E5FFA8B11434E3E716
:10A4100000226A61726805F114033AB9C6E9003393
:10A4200000240A4819F04EF9204670BD136073608D
:10A43000F6E76FF01004F4E76FF01004F4E700BFE4
:10A440009CC604003CC70400CC200020480D00201E
:10A450002DE9F74307460C4609B100230B601F4D59
:10A46000DFF8809000264D450FD31D4B1D6885B346
:10A4700055F8148C01AA41463846143D1BF0A6FC41
:10A4800010B3D6B914BB2E461EE0D5F8008001AA41
:10A49000414638461BF09AFC50B116B954B92E46C5
:10A4A00006E03168002240461BF090FC0028F5D100
:10A4B0001435D8E7019B2360F1E73168002240465C
:10A4C0001BF084FC0028DDD16D69D0E7019B23607F
:10A4D000D9E7304603B0BDE8F08300BF9CC6040056
:10A4E000CC2000203CC70400F8B5184C184F064695
:10A4F0000025BC4208D3174B1C682CB3143CB6B9DA
:10A50000E368E3B96469F8E72EB9E3685BB9284604
:10A5100014340546EDE72068002231461BF056FC56
:10A520000028F2D1F3E79847002DF0D1F0E720683A
:10A53000002231461BF04AFC0028E1D1E2E79847AF
:10A54000002D08BF0546DDE72846F8BD9CC604007F
:10A550003CC70400CC20002038B50C4D0C484FF00F
:10A56000FF334FF0FF3219F033F82B783BB9FFF788
:10A5700027FF00F06DF8044610B901232B7000246A
:10A58000034819F09FF8204638BD00BFC34400209F
:10A59000480D00202DE9F047048FDFF8B0A001340A
:10A5A00098B080468946A4B200F10806651EADB297
:10A5B000B5F5004F47D04A2305AA294630461BF07F
:10A5C00091FB04F57F543F34A4B207462146012392
:10A5D0000DF10B0230461BF085FB002F014603DC1A
:10A5E000002803DC2C46E1E7002816DCB8F83830F8
:10A5F000AB4209D142466B1E22F8383F4FF400416E
:10A6000002233046FEF768FE294630461BF006FB63
:10A61000214630461BF002FBE4E707F160030DEB37
:10A620000307002307F84C3C5246CDF8009003ABDB
:10A6300005A80396ADF810401BF0FEFB0028D1D012
:10A6400018B0BDE8F0870020FAE700BFA75E04005D
:10A650007FB50123694602200193FEF715FF0446EA
:10A6600060BB02AA01A90220FEF736FF044610B122
:10A6700010F10C0F22D10399B1F5803F23D2009A3B
:10A68000002394681846084484421AD30133082BE7
:10A69000F9D10E4DA982EB825368AB602846D3688E
:10A6A000EB631BF09AFC044640B9094E6E602846E5
:10A6B000FFF724FE28466E60FFF72EFE204604B00A
:10A6C00070BD9BB2E5E76FF02004F7E7D4200020CF
:10A6D00008040020014B1868704700BF1C040020CC
:10A6E000F0B5082289B01BF050FECB6A03930B6BC8
:10A6F00004934B6B05938B6B0693CB6B07931346BD
:10A700006A460C460646002711461046CDE90177F9
:10A7100000971BF049FD3146054630461BF044FDCD
:10A72000216B0391616B0491A16B0591E16B054471
:10A73000CDE90617104611461BF036FD314605449B
:10A7400030461BF031FD0544206A0090606A01909C
:10A75000A06A0290A06B0690E06B07903046CDE9AE
:10A76000047703971BF020FD0544606A0090A06AFF
:10A770000190E06A0290A06BD4F834C00490E06BC2
:10A78000CDF80CC0CDE9050C206A079030461BF0CF
:10A790000BFD0544E06A0090206B0190606B029015
:10A7A000206A0690A06A07903046CDE904770397A7
:10A7B0001BF01EFE236B0093636B0193A36B02934C
:10A7C000E36B0393636A0693E36A07932D1A0823E6
:10A7D00030461BF00DFE636B0093A36B0193E36B9C
:10A7E0000293236A0393636A0493A36ACDE905374E
:10A7F000236B07932D1A082330461BF0F9FDA36B3A
:10A800000093E36BCDE90137636A0393A36A049372
:10A81000E36A0593636B07932D1A082330461BF0F8
:10A82000E7FD2D1A10D40D4C35B9082231462046CB
:10A830001BF0B7FD01280FD00823224631463046D1
:10A840001BF0D6FD2D1AEFE7044A082331463046A7
:10A850001BF0AAFC2D18F8D409B0F0BDE4CB04001D
:10A860000449431E0F3013F8012F8A5C1A7083428B
:10A87000F9D170471EE70400F0B5264E07460C4696
:10A880000FCE8DB001AD0FC50FCE0FC596E80700F6
:10A8900085E807003846002F38D0002C38D0381F04
:10A8A0002146024610344B780D781B0443EA0563B9
:10A8B000CD782B438D78043143EA05238C4242F84E
:10A8C000043FF0D1144C04218A07036916D1C3F365
:10A8D0000742A55C1A0EA25C42EA0562C3F3072593
:10A8E000DBB2655DE35C42EA054242EA032221F005
:10A8F000030330336B4453F82C3C534050F8042F7F
:10A90000013153402C290361DED101200DB0F0BD8F
:10A910002046FBE754C704001EE7040030BFFFF7E2
:10A92000FDBF00BF114B124A2DE9F041D518DFF8E9
:10A930004C80013DB5FBF3F55D430E4B08EB030482
:10A94000013CB4FBF3F403FB04540E1B07460A4915
:10A95000304621F058FC701942460021083E21F093
:10A9600060FC7E6704F10800BDE8F0810100000092
:10A9700000000000040000003CC7040008000000C4
:10A98000044B99689869884203D003494FF080527C
:10A990000A607047C443002004ED00E0134B9A6A3C
:10A9A00012F0007F9A6A14BF1E201D2012F0807FD3
:10A9B0009A6A18BF1F2012F4002F9A6A18BF21202C
:10A9C00012F4802F9A6A18BF222012F4003F9A6A6C
:10A9D00018BF232012F4803F9A6A6FEA02426FEA9E
:10A9E00012429A6218BF2420704700BF00ED00E0B9
:10A9F00010B5194B0246986A9C6A10F4805F14BF28
:10AA00001720162014F4006F9C6A18BF1820A405A4
:10AA100009D5986B986A000404D51AB19A6A22F491
:10AA200000429A6219200C4B9A6A12F4806F9A6A5B
:10AA300018BF1A20D2050CD49B6A13F4005F18BF0C
:10AA40001C20054A936A43F47F43936200230B70F2
:10AA500010BD1B20F5E700BF00ED00E010B51C4B5A
:10AA60000246986A9C6A10F0100F14BF1120102043
:10AA700014F0080F9C6A18BF1220A40709D5586B60
:10AA8000986A000604D51AB19A6A22F080029A6286
:10AA900013200F4B9A6A12F0010F9A6A18BF142004
:10AAA00012F0200F9A6A18BF1520D40658BF9B6A6F
:10AAB000074B9A6A920642BF5A6A22F400525A62BF
:10AAC0009A6A42F0FF029A6200230B7010BD00BF29
:10AAD00000ED00E070B5444B5B689CB00646C3F3E4
:10AAE0000803002585F31188BFF36F8F02F07F40C4
:10AAF000B0F17F4F11D102F00C0008280DD01007E3
:10AB00004CBF0E4601250022033B8DF80720032B86
:10AB100005D8DFE803F01E5C60592E46F3E70024F9
:10AB20009DF807309BB96822314602A821F06BFBE3
:10AB3000099B002D53D0C3F3080222B96FEA5323B7
:10AB40006FEA4323099302A920461CF078FB1CB04E
:10AB500070BD254BDA6A9107E1D4DA6A002ADEDBA0
:10AB6000DA6A5200DBD55A69B16942F480725A61DF
:10AB7000BFF34F8FBFF36F8F5A6931F8021C22F475
:10AB800080725A61BFF34F8FBFF36F8F4DF6027221
:10AB9000914209D09A6AD2B242B10DF10701012067
:10ABA000FFF75CFF0446BBE73468B9E79A6A12F422
:10ABB0007F4F05D00DF107010120FFF719FFF1E7E5
:10ABC0009B6AB3F5803FAAD3FFF7E8FEEAE70DF1F1
:10ABD00007010020E4E70DF107010020EDE723F471
:10ABE000FF7323F00103ADE700ED00E0024A536973
:10ABF00043F010035361704700ED00E0EFF308806D
:10AC0000EFF3098101B57246FFF764FF01BD00BF94
:10AC1000044800232021C2180133302B82F800138E
:10AC2000F9D1704700E100E0FEF7C2F9202080F37F
:10AC3000118808484FF40061401880F30988EFF349
:10AC400014800221084380F31488BFF36F8F00F053
:10AC5000D5F8000098620020084B9B6883420BD116
:10AC6000EFF3058343B1064B5A6842F080525A60B5
:10AC70005A6A22F400425A6219F034BAC4430020DE
:10AC800000ED00E0094A0A4993680968D967094953
:10AC900098674B6843F080534B60002383F311881F
:10ACA000BFF36F8F9368D86F704700BFC443002015
:10ACB00094E4040000ED00E021498A6882F8C1E0D4
:10ACC0004FF030001044EFF3098C80E8F01F1EF0C5
:10ACD000100F03D102F1800080EC108A202080F355
:10ACE0001288BFF36F8F174F4FF000668A698A6032
:10ACF0003E604FF0740414192068134C206092F9E0
:10AD0000C1E0906F0023936780F311881EF0100F4D
:10AD100003D00023E1EE103A03E002F1800090EC52
:10AD2000108AEFF3148323F0040383F31488BFF332
:10AD30006F8F02F1300090E8F01F8CF309887047A4
:10AD4000C443002004ED00E0142100201EF0040F95
:10AD50000CBFEFF30880EFF30980816911F8021C42
:10AD60000229FFD001B51CF06CFA01BD40B20028E9
:10AD700007DB044A4109012300F01F00834042F829
:10AD80002130704700E100E040B200280CDB4309AD
:10AD9000064900F01F0020330122824041F82320A1
:10ADA000BFF34F8FBFF36F8F704700BF00E100E02C
:10ADB000054B420900F01F0053F82220012303FA3B
:10ADC00000F01040704700BF00E100E040B20028F2
:10ADD000A8BF00F1604001F10101B8BF064B4FEA86
:10ADE0004111ACBF00F5614000F00F00C9B2B4BF23
:10ADF000195480F80013704714ED00E0144A08B5A8
:10AE0000144B22F07F029A60BFF34F8FBFF36F8F16
:10AE1000D3F8882022F47002C3F88820D3F8882061
:10AE200042F4A002C3F888204FF04042C3F8342215
:10AE3000BFF34F8FBFF36F8F0023E1EE103A18F08E
:10AE400053F919F0C5F9FFF7E3FE18F09BF900BFBD
:10AE50000060020000ED00E042F8203C009B42F858
:10AE60001C3C019B42F8183C0A49029B42F8143CE6
:10AE70004FF0807342F8043C21F00101002342F8B6
:10AE8000081C203A83674FF47D430265C0F8C03048
:10AE9000704700BF318D0200114B9B6883421BD16C
:10AEA000EFF30580C0B94FF02002EFF3118182F378
:10AEB0001288BFF36F8F1A7B22F002021A73EFF32E
:10AEC000148323F0040383F31488BFF36F8F81F39B
:10AED0001188BFF36F8F70476FF01500704700BF88
:10AEE000C44300200023E1EE103AEFF3148323F073
:10AEF000040383F31488BFF36F8FBFF36F8F094B85
:10AF00009860094B406F1860104681F30988002152
:10AF100063B681F31188BFF36F8F00220023FDF722
:10AF200007FF00BFC4430020142100200149102264
:10AF30000A60704710ED00E072B6404080F311885F
:10AF4000BFF36F8FBFF34F8F30BF62B6BFF36F8F0A
:10AF5000704700BF72B6494081F31188BFF34F8F2D
:10AF600020BF80F3118862B6704700BF01B5EFF3D0
:10AF70000580A0F110004FEAC0000449014409C94E
:10AF80009847BDE80140024908470000D0C40400CA
:10AF900081A90200024B034A0348012100F030B8A6
:10AFA000000004200000002090CC0400084AC2F8F1
:10AFB00098000B6823F01F03034343F01003C2F80B
:10AFC0009C308B6843F00103C2F8A030704700BF8B
:10AFD00000ED00E0044B0522C3F89420BFF34F8F2F
:10AFE000BFF36F8F704700BF00ED00E0BFF35F8FCE
:10AFF000024B0022C3F89420704700BF00ED00E030
:10B0000010B5034C012322781CF03AF9207010BDD2
:10B01000C4440020F0B5454D2C68082C85B000F2E2
:10B020008280FFF7E3FF00200C2684420DD1404DC3
:10B03000404F2C706846FEF721FA00240646A642CF
:10B040000AD1FFF7C7FF00201CE0696806FB00116A
:10B05000FFF7ACFF0130E8E7009800EB04114FEA7E
:10B06000041CCB683B40B3F5000F4AD00CD8B3F5B5
:10B07000001F30D0B3F5800F38D0B3F5801F12D049
:10B080006FF0150005B0F0BDB3F1807F42D0B3F191
:10B09000007FF5D150F80C3088684A681CF0E0F861
:10B0A00040F4802009E050F80C3088684A681CF0B1
:10B0B000D7F840F0885040F43020039028780728D3
:10B0C000CDE90123DCD801A9FFF770FF2B7801330C
:10B0D0002B700134B3E750F80C3088684A681CF0D4
:10B0E000BFF840F0885040F40020E6E750F80C30FC
:10B0F00088684A681CF0B4F840F0007040F40030F2
:10B10000DBE750F80C3088684A681CF0A9F840F07A
:10B110008270D2E750F80C3088684A681CF0A0F8BA
:10B1200040F08870C9E74FF0FF30ABE79CCC0400DB
:10B13000C44400200000F0FF08B5044819F0FBFFEC
:10B14000404080F311884FF0020002DF1EE8040047
:10B1500008B50649064821F00701C1F1005202F581
:10B1600080221AF083F9002008BD00BFFB80002078
:10B17000182100200E4A0123C2F840354FF08042CA
:10B180004FF08051C2F87835D1F83001082808D145
:10B19000D1F83411052904D80648415C09B1C2F838
:10B1A00038364FF080430122C3F8802500207047D5
:10B1B00000E001404BE804004FF08043C0B2C3F808
:10B1C0001C05BFF34F8F0549054BCA6802F4E062C6
:10B1D0001343CB60BFF34F8F00BFFDE700ED00E0EE
:10B1E0000400FA0520B1034B800143F00103184726
:10B1F000704700BFD0C7040008B5044820F08BF8A2
:10B2000000280CBF6FF01200002008BDCCC3040062
:10B21000F8B5594EBFF35B8F3468BFF35B8F14F002
:10B22000010450D0554F564C564D57483A4621468A
:10B230001AF013FFE0B320222946204620F0A5FF94
:10B240000028F2D000274FF0FF324FF0FF330120EB
:10B2500000F04AFB00F10C050221044628461FF0CD
:10B2600098F93E23037042234370012128461FF0C2
:10B2700090F908230370412128461FF08AF90546FA
:10B2800000F8017BB7B14022002120F0CAFFBFF3D4
:10B290005B8F56E8003F23F0010346E80032002AA6
:10B2A000F7D1BFF35B8F2046BDE8F84000F064BFE4
:10B2B0001F27C8E734491CF07DF8203105F1210033
:10B2C0001CF078F8E3E7BFF35B8F3368BFF35B8F65
:10B2D0009B0750D529492C481BF07CFD002811DB29
:10B2E000BFF35B8F264933682648BFF35B8F13F0AB
:10B2F000040F01F12002214B18BF014610461AF03D
:10B30000F9FE04464FF0FF324FF0FF33012000F00A
:10B31000EBFA00F10C070221054638461FF039F917
:10B320003E23037022234370012138461FF031F978
:10B3300009230370212138461FF02BF90346013001
:10B340009CB91F221A70FF21202220F06AFFBFF350
:10B350005B8F56E8003F23F0020346E80032002AE4
:10B36000F7D1BFF35B8F28469EE7002206491A708B
:10B370001CF020F8EBE7F8BD24210020BCCC040031
:10B38000C54400206BE80400E544002070B5214C62
:10B39000BFF35B8F2368BFF35B8FDA0706460D466A
:10B3A00001D50C2070BD012931D8BFF35B8F54E863
:10B3B000003F43F0020244E800210029F7D1BFF327
:10B3C0005B8F9B07EDD4144831461BF0F3FF134805
:10B3D00006F120011BF0EEFFBFF35B8F75B154E85F
:10B3E000003F43F0040344E80032002AF7D1BFF3E2
:10B3F0005B8F0B4800F036FA0020D3E754E8003F9B
:10B4000023F0040344E80032002AF0D0F6E71220CB
:10B41000C8E700BF24210020E544002005450020A6
:10B420002004002070B5067E044676B9C3681D88E6
:10B4300042F22602954245D00FD842F201029542CF
:10B440004FD042F225039D4213D02A4BD3F85C31F2
:10B4500020465B69BDE87040184742F25E039D429A
:10B46000F3D103210C301FF0B3F8E06890F84010DE
:10B470002EE003210C301FF0ABF8204613F05AFEEB
:10B48000BFF35B8F1C4B1A68BFF35B8F920707D526
:10B490000C26314642F225001BF068FF002070BDEB
:10B4A000BFF35B8F53E8002F42F0010143E8001027
:10B4B0000028F7D1BFF35B8FD307E9D40F4800F022
:10B4C000D1F9E6E703210C301FF082F8E06831463D
:10B4D000FFF75CFF0646204613F02CFE3146284657
:10B4E000DAE7DA7802F07F02DA701A7922F00102E4
:10B4F0001A71AAE700000020242100202004002067
:10B500002DE9F341254CBFF35B8F1F462368BFF342
:10B510005B8F1646DA0705462BD520B96FF0010080
:10B5200002B0BDE8F08101A91AF074FC1C49804604
:10B530000246284620F039FEE8B9BFF35B8F236846
:10B54000BFF35B8FC3F3C0081B0712D4A4F1D4056B
:10B55000072229463846B047062895BF44F8D48CC0
:10B560000723C5F80380B0FBF3F094BF85F807808C
:10B57000E8710020D4E728460A49424620F015FE2B
:10B5800005460028CAD11C2204F18C013846B04778
:10B590000028EEDB044484F88C50EAE7D400002055
:10B5A0006AE604008BE804002DE9F04188B09C793C
:10B5B000DDF838805D791E79DF7893F802C093F862
:10B5C00001E01B78B8F1000F0ED0CDE90638CDE9C7
:10B5D00004CE1346CDE90267CDE90045084A19F0CB
:10B5E0009BF808B0BDE8F081CDE905E3CDE9037C27
:10B5F0001346CDE90156034A009419F08DF8F0E79F
:10B6000090E80400B4E8040070B504468CB01E460F
:10B610001546A2B129B10A4602A8042119F010FD6D
:10B6200002A900912B462246242103A8FFF7BCFF64
:10B63000109A314603A8FEF73BFE0CB070BD0346DE
:10B64000044A242103A819F067F80028F0DA6FF003
:10B650001500F2E7D5E8040007B5064B0648DA798D
:10B66000C2EBC202009200221146FFF7CDFF03B0E9
:10B670005DF804FB000000206AE6040030B50446D3
:10B680008DB0154692B129B10A4602A8042119F0DD
:10B69000D7FC02A900912B462246242103A8FFF7DC
:10B6A00083FF03A81AF08EFB0DB030BD0346054A98
:10B6B000242103A819F030F80028F2DA6FF0150001
:10B6C000F2E700BFD5E8040007B5009313460A4629
:10B6D00001460348FFF798FF03B05DF804FB00BF85
:10B6E000A7EA04000A4601460148FFF7C7BF00BFAA
:10B6F000A7EA040007B5009313460A46014603482B
:10B70000FFF782FF03B05DF804FB00BFA1EA04006D
:10B7100007B5009313460A4601460348FFF774FF36
:10B7200003B05DF804FB00BF92EA040007B50022F5
:10B730000346009103481146FFF766FF03B05DF82A
:10B7400004FB00BF99EA040007B5002203460091FC
:10B7500003481146FFF758FF03B05DF804FB00BF34
:10B760008BE8040008B5024818F01EF9002008BD57
:10B770003004002070B51D4CBFF35B8F2368BFF30E
:10B780005B8F13F0010F254622D094F88C30A4F182
:10B79000D40613B9164800F001FEF379D3B1BFF314
:10B7A0005B8F2368BFF35B8F5A0701D400F07AFDEB
:10B7B000BFF35B8F55E8003F23F4803245E800215A
:10B7C0000029F7D1BFF35B8FDB0301D5FFF7CAFF79
:10B7D000002009E001F03AF830B9F379002BDED10E
:10B7E00001F078F80028DAD070BD00BFD400002046
:10B7F0003BE8040007B5009313460A460146034898
:10B80000FFF702FF03B05DF804FB00BFE6EA0400A7
:10B810000A4601460148FFF731BF00BFE6EA0400CF
:10B8200030B50A4D0A4B85B0002428460293039494
:10B830001FF0CFFF02AB0093284606490A234FF4BE
:10B84000A36218F0B7F8204605B030BDC81100203B
:10B85000DEE80400804B00200146014818F0E2B801
:10B86000C8110020014601481FF0A2BFC8110020E6
:10B870000378012B30B513D0022B27D07BB9194B9D
:10B880000A4603F1100453F8045B42F8045BA34238
:10B89000F9D11B78137043884B731B0A8B7330BD2F
:10B8A000104B0A4603F1100453F8045B42F8045BA2
:10B8B000A342F9D11B78137043684B73C3F307227B
:10B8C0001B0CCB731B0A8A730B74E8E700F110039F
:10B8D00050F8042B41F8042B9842F9D103780B70EF
:10B8E000DDE700BFE7E8040038B5054605481EF06F
:10B8F00011FE044620B100210C301EF046FE2576D4
:10B90000204638BD100F002070B502460D48BFF329
:10B910005B8F0B46002150E8004F40E80015002DDA
:10B92000F9D1BFF35B8F24B9BDE870400120FFF768
:10B93000DBBF012304F10C00237621821EF025FEDB
:10B94000204670BD4001002070B504460F2C0D4606
:10B950001046194605D80D2C0DD9BDE87040FFF7EB
:10B96000D3BF132C07D10C481EF0D4FD044638B9C0
:10B970000024204670BD02460B4645B10748F3E758
:10B9800000210C301EF001FE01232376F1E7BDE813
:10B9900070400120FFF7A8BF3C0F00208C0E002054
:10B9A00038B5C368B3F801401B786BB90F21204646
:10B9B00001F060FE054640B9084B1A8822B96FEACB
:10B9C00004506FEA1050188038BD012101F096FD37
:10B9D0002846BDE838401CF048BC00BF04440020A5
:10B9E00010B5084C0146052294F86F0001F0C0FF25
:10B9F00038B994F86F000449BDE81040042201F002
:10BA0000B7BF10BD0000002051E8040010B50121AF
:10BA100004460C301EF0E4FD2146034A0078BDE8E0
:10BA200010400A231BF03BBEF4CD0400F8B50746D6
:10BA3000907A0E46144613F0CFFA284B83424BD12E
:10BA4000204613F0D1FA264D0C2303FB0050438807
:10BA5000BB4241D1234FD7F8400120B113F06AFB1C
:10BA60000023C7F84031204613F0BEFA0C2707FB2D
:10BA7000005043689BB196B9204613F0B5FA07FB16
:10BA8000005001214268D2E90003127A03F01F0737
:10BA9000B9405B09D2B100EB83001BF067FD204683
:10BAA00013F0A2FA0C2707FB00508368A3B12046CD
:10BAB00013F09AFA78432E54204613F095FA07FBB8
:10BAC0000055A868BDE8F84017F06CBEC94300EB0C
:10BAD00083001BF0FBFDE2E7F8BD00BFE40E002091
