:020000022000DC
:10600000C0AE002025E0020065F00400F9DF0200C8
:10601000F9DF0200F9DF0200F9DF020000000000F2
:1060200000000000000000000000000049E1020044
:10603000F9DF020000000000B5E00200F9DF020015
:1060400069E30200552F040069E3020069E30200DE
:1060500069E3020069E3020069E3020069E3020008
:1060600069E3020069E3020069E3020069E30200F8
:1060700069E3020069E3020069E3020069E30200E8
:1060800069E3020069E3020069E3020069E30200D8
:1060900069E3020069E3020069E3020069E30200C8
:1060A00069E3020069E3020069E3020069E30200B8
:1060B00069E3020069E3020069E3020069E30200A8
:1060C00069E3020069E3020069E3020069E3020098
:1060D00069E3020069E3020069E3020069E3020088
:1060E00069E3020069E3020069E3020069E3020078
:1060F00069E3020069E3020069E3020069E3020068
:1061000053B94AB9002908BF00281CBF4FF0FF311E
:106110004FF0FF3000F00CB8ADF1080C6DE904CE83
:1061200000F008F8DDF804E0DDE9022304B0704770
:10613000704700BF2DE9F04786468C460846089E0A
:10614000154674461946002B40F0C2808542B2FACB
:1061500082F245D94AB1C2F1200300FA02FC2EFABC
:1061600003F3954043EA0C0C94404FEA154EA8B255
:10617000BCFBFEF8230C0EFB18CC08FB00F943EA2D
:106180000C43994528D9EB1808F1FF3704D29945FB
:1061900002D9A8F102072B44A3EB0903A4B2B3FB75
:1061A000FEFC0EFB1C330CFB00F044EA0344A0424F
:1061B00014D92C190CF1FF3304D2A04202D9ACF14E
:1061C00002032C44241A43EA07401EB1D4400023A2
:1061D00034607360BDE8F0874746DDE76346F1E76A
:1061E00092BB431B01214FEA154EAFB2B3FBFEFC3D
:1061F000200C0EFB1C330CFB07F840EA03439845C8
:1062000062D9EB180CF1FF3004D2984502D9ACF1F9
:1062100002002B44A3EB0803A4B2B3FBFEFC0EFB6D
:106220001C330CFB07F744EA0344A7424ED92C1950
:106230000CF1FF3304D2A74202D9ACF102032C4483
:10624000E41B43EA0040C0E7C2F1200320FA03F157
:10625000954090402EFA03F303434FEA154EAFB238
:10626000B1FBFEFC0EFB1C10190C0CFB07F841EAFD
:106270000041884504FA02F422D969180CF1FF3074
:1062800004D2884502D9ACF102002944A1EB0801EF
:106290009BB2B1FBFEFC0EFB1C110CFB07F743EAA3
:1062A00001439F420ED9EB180CF1FF3104D29F42FB
:1062B00002D9ACF102012B44DB1B41EA004192E719
:1062C0006046E3E76146F7E76046A3E76346B7E762
:1062D000834206D916B9002108467BE7C6E900E0EB
:1062E000F9E7B3FA83F78FB9834201D3724508D82F
:1062F000BEEB020460EB030301209C461EB90021A3
:1063000068E73846FAE7C6E9004CF8E7C7F1200C21
:10631000BB4022FA0CF41C432EFA0CF120FA0CF3C9
:10632000B84001434FEA14490EFA07F5B3FBF9F8F8
:106330001FFA84FE09FB18300B0C08FB0EFA43EA27
:1063400000439A4502FA07F240D9E31808F1FF30FA
:1063500004D29A4502D9A8F102002344A3EB0A0310
:1063600089B2B3FBF9F809FB183308FB0EFE41EACA
:1063700003418E452CD9611808F1FF3304D28E45B4
:1063800002D9A8F10203214443EA0040A0FB02988D
:10639000A1EB0E014145CE46434602D306D14D4501
:1063A00004D2B9EB020E68EB04030138002EA6D02C
:1063B000B5EB0E0261EB030101FA0CFC22FA07F3C4
:1063C0004CEA0303F940C6E9003198E74046C5E7C7
:1063D0004346D9E710F8012B11F8013B012A28BFE9
:1063E0009A42F7D0D01A7047034611F8012B03F8F0
:1063F000012B002AF9D17047034613F8012B002A1C
:10640000FBD1181A01387047F7B5404DD5F85C310B
:10641000996811F0010124D101AA40F6034008F067
:10642000D1FF044600286DD1019CE3681B78ABB90D
:106430000AF08EFABFF35B8FD5F8D430BFF35B8FD1
:1064400005F1D40203F00903BFF35B8F52E8001F8C
:1064500042E800300028F9D1BFF35B8F204620F0DE
:1064600033F801AA002141F2030008F0ABFF044613
:10647000002847D1019B264EDA68D2F80100D2F8F5
:10648000051003C6184620F01FF8214601AA41F264
:10649000010008F097FF0446A0BB0198C3685A7832
:1064A00085F870205A88A5F872201A7985F871202D
:1064B000B3F80720A5F87420B3F80530A5F87630B6
:1064C00020F002F8214601AA41F2020008F07AFF0A
:1064D0000446B8B9019FFA68531C413218685968DC
:1064E000344603C4083393422646F7D1094828F0BE
:1064F00096FE38461FF0E8FF95F87C305B060BD41B
:106500006FF01204204603B0F0BD00BF4000002031
:10651000B8000020C000002001AA002142F20300C0
:1065200008F050FF04460028ECD1019BB64EDA6813
:10653000D2F80100D2F8051003C618461FF0C4FFB8
:10654000214601AA42F2020008F03CFF044600285E
:10655000D8D1019CE368B3F8012091B249B1D97850
:1065600039B1A5F80421DA78114606F128002DF09A
:10657000BCFF20461FF0A8FF95F87C6016F02006AF
:1065800018D1022140F66D4008F0C0FE04460028F4
:1065900000F0CC8002210C302CF02DFF0123037081
:1065A00046702146324640F66D4008F00BFF044627
:1065B0000028A7D195F89C301F0712D501AA002109
:1065C00042F21C0008F0FEFE044600289AD1019811
:1065D000C368D3F80120D3F80530C5E938231FF08C
:1065E00073FF95F8D8309E0624D50DF10201684658
:1065F00029F036F90446002884D1042142F224000F
:1066000008F084FE0646002800F0908004210C303B
:106610002CF0F1FEBDF800300380BDF8023043805D
:106620002246314642F2240008F0CCFE04460028FF
:106630007FF468AF95F8D8305C0610D501AA002128
:1066400042F22A0008F0BEFE044600287FF45AAF4A
:106650000198C3685B7885F820311FF035FF082169
:1066600042F2010008F052FE044600285ED00821E4
:106670000C302CF0C0FE95F8D81011F0400F0246F7
:1066800040F2022308BF032388074CBF43F02C00CD
:1066900043F00C0095F8D9308F0648BF40F0400019
:1066A00013F0090F95F8A23018BF40F4006003F012
:1066B0000603CE0748BF40F01000062B08BF40F489
:1066C000C070002128F03DFF2146002242F2010067
:1066D00008F078FE044600287FF414AF95F87C306B
:1066E000B5F80411980624D4C9B901AA41F20500ED
:1066F00008F068FE044600287FF404AFB5F80431C2
:10670000019C4BB9E368B3F80120A5F804219A88ED
:106710003E4811462DF0E9FE20461FF0D5FE082127
:1067200040F6014008F0F2FD044638B96FF0680405
:10673000E8E60029F3D16FF00404E3E608210C3009
:106740002CF059FE95F8D830D907024653BF4FF0C8
:1067500000512BA1D1E900012D4828F0F2FE21467D
:10676000002240F6014008F02DFE044600287FF488
:10677000C9AE014601AA4FF6014008F023FE0446C7
:1067800020BB01981FF0A0FE214601AA4FF602404F
:1067900008F018FE0446C8B90198C368B3F8013080
:1067A000A5F8C1301FF090FE95F8C1305B070DD5FC
:1067B00001AA21464FF6034008F004FE30B90198C3
:1067C000C3685B7885F8C0301FF07EFE29F0C1FAFF
:1067D000044600287FF496AE0BF0E6FA0446002843
:1067E0007FF490AEEB79002B3FF48CAE0821094882
:1067F00028F00DFE09F082F984E600BFAFF30080B7
:10680000908800020080002018010020480100202C
:1068100010880002140100202DE9F843D0E90C355E
:10682000D0F82C805C193034A0450F46164619D894
:106830001D4DA3FB05011AA3D3E90023FFF760FC5C
:106840000346A4EB0800A0FB050123F07F4414A33A
:10685000D3E90023FFF754FC20F07F403C60306018
:10686000BDE8F883DFF840900DA3D3E90023A8FB2F
:106870000901FFF745FC044605F1300008A3D3E900
:106880000023A0FB0901FFF73BFC24F07F4420F02C
:106890007F403C603060BDE8F88300BFAFF300800C
:1068A0008D49FD1A0700000000CA9A3B0000000055
:1068B0009FED0D7B124B134A1348144910B483ED1E
:1068C000007B9FED0B7B82ED007B9FED0B7B104BE4
:1068D0004FF0FF34002281ED007B04601A605DF808
:1068E000044B12F0EFBA00BFFFFFFFFFFF1F0000D5
:1068F00000000000000000001F0000000000000079
:10690000C8010020E0320020005C0020C00100200F
:10691000F85B002000000000002800F05F812DE9F6
:10692000F04FB54C94F86A2012F001058DB040F09C
:10693000A78194F82500FF2300F0030084F8263097
:106940001BF0E8FD94F86A00420727D494F8292048
:1069500094F8353004EB820204EB8303D66AD3F853
:10696000388086B1A448314614F030FA33785B069B
:1069700005D506210FF0D6F9002800F083819E4846
:10698000414614F023FA337813F00E0F40F0B7802D
:10699000236A93B10C200DB0BDE8F08F2A4604F1B4
:1069A0006B01C0F3C0001BF051FFFF2884F82600E4
:1069B000CCD028461BF0F4FDC8E711F0ADFB8146B2
:1069C000002800F0718111F0B3FB8246002800F02E
:1069D000688114F029FE0546002800F06781D0F890
:1069E00088004FF6FF732B8505F11C0B002800F083
:1069F0004F8105F1780105F17C020FF09FF9B5F8A0
:106A000076307E4A23F4EF6323F0070343F4887360
:106A100043F00103A5F876301346D2F80120C5F8FB
:106A20009B21C5F8A12113F8012B9B88A5F89F3164
:106A3000A5F8A53195F89A3102F0010262F300033E
:106A400062F3410385F89A3195F8393003F03F033A
:106A500063F07F0385F8393095F88E3023F0070313
:106A600085F88E3095F83C3023F00703002785F831
:106A70003C304FF4C023C5F888312846C5E9127769
:106A8000C5F88870A5F88C706F86C5F82E7085F8EB
:106A90003B702F65A5F88E71A5F8847117F092FBF5
:106AA00085F85071C5F8549115F07CF895F894313B
:106AB00060F3020385F8943115F07AF895F8943173
:106AC00060F3C50385F8943195F8803167F341038D
:106AD00085F880310121284615F0CAFC05F1D40063
:106AE00017F0F8F8C4E9189AC4F820B0C5E905779A
:106AF0002F70ED611CF0DCFF002840F0C58094F899
:106B000024300121C3F342030DF12B008DF82B300B
:106B10000FF0B2FA0246002862D098F80110304611
:106B200013F016FF31233649A360364BB4F8687072
:106B3000A0FB01010025C01841F107012CA3D3E9F6
:106B40000023C4E9055525706560E560FFF7D8FAB4
:106B5000206110F0C5FD00F109083FB9357805F056
:106B60000F05A5F10105B5FA85F56D0994F8240026
:106B7000236965F3000010F0010584F824004BD070
:106B8000214A0992002010600225204A204F0493D8
:106B90000BAE019305920321CDE902000694434612
:106BA0000090089607972A460B9510F037FC31465F
:106BB00011F078FBA0B9174905914AF2D833009338
:106BC000CDE90300CDE901000797089606944346F6
:106BD000012203210B9510F0EDFB43E013F004BEFE
:106BE000236A002B3FF4D6AE13F0BCFDD2E600BF03
:106BF0008D49FD1A07000000B85C0020528705008F
:106C000000CA9A3B8C49FD1AAC5C0020CDA9030058
:106C10006D780300E1A403002B4A2C48049303F28F
:106C200047130694029591211360A7FB000301FB13
:106C30000731274B0793274B05934FF6FF730992B4
:106C4000022703930BAE1EA3D3E900230B970896EC
:106C5000FFF756FA4346CDE900503A46284603214D
:106C600010F0DCFB314611F01DFB0028B8D194F880
:106C70006A3043F0010384F86A3014F0C9FA60B155
:106C8000002088E6122086E613F06CFD032082E6E1
:106C900005F18000C5F88800ABE601201BF01CFC64
:106CA000EEE7484611F03EFA072074E6504611F030
:106CB00045FA484611F036FAF6E700BFAFF3008018
:106CC0008D49FD1A07000000AC5C0020002AE78413
:106CD0006D780300CDA9030070B590F824308AB018
:106CE000C3F342030D46044601210DF1230016466D
:106CF0008DF823300FF0C0F971780246284613F062
:106D000027FE1F491F4AA0FB0131981841F10701D6
:106D100019A3D3E90023FFF7F3F923699842054645
:106D200021D21B1A00220192174A0293174BA21A72
:106D3000A3FB02320221920900230A4409AE099101
:106D400013490591CDE903330321D2B2069600938E
:106D5000184610F0C3FB314611F0A4FA38B925618A
:106D600000200AB070BDFBD9C21A0023DBE70C205B
:106D70000AB070BDAFF300808D49FD1A0700000016
:106D800000CA9A3B8C49FD1AB85C00208988888823
:106D90006D7803000000000038B5194C9DF810E034
:106DA00094F848C01CF0010523D163F3420C400164
:106DB00094F83230A1874FEACE0E0EF0180E00F094
:106DC000200040EA0E0023F0380303430D4884F806
:106DD00032309121A2FB000384F848C001FB02314C
:106DE00005A3D3E90023FFF78BF9C4E91000284677
:106DF00038BD0C25284638BD8D49FD1A0700000016
:106E0000E8320020002AE78410B504469DF8080007
:106E100022844FEA411CC000A17D00F018000CF054
:106E2000200C4CEA000C0C4821F038014CEA010C13
:106E3000A3FB0002912184F816C001FB032104A3E7
:106E4000D3E90023FFF75CF9606210BDAFF3008067
:106E50008D49FD1A07000000002AE78400000000A9
:106E60002DE9F047044600F1350190F8480094F808
:106E700032305B4DDFF88081C0F3400060F3861351
:106E80008CB084F8323010F07DFC94F83220A38F5F
:106E90005448E46102F07902002784F832209121FD
:106EA000A3FB0002C4E90577277001FB03214AA375
:106EB000D3E90023FFF724F9651B626C4A4B676036
:106EC000AD08A3FB053502F10903984298BF3A4685
:106ED000C5F3470522644FF031028CBF19460146C5
:106EE000A26005EB4502E760216148F822100646E2
:106EF00010F0F6FB236A00F109074FEA450A002B60
:106F00004AD00DF12C09AA4408EB8A030993CDF865
:106F100020900694A38F33484FF00008A3FB000293
:106F2000CDF80C80912101FB0321236904932F4BA1
:106F300007932F4B05934FF0020A27A3D3E90023B1
:106F4000CDF82CA0FFF7DCF8104619464FF47A7202
:106F50000023FFF7D5F80435EDB2CDE90160032138
:106F60003B462A46CDF80080404610F057FA494685
:106F700011F098F960B994F8483043F0010384F8AF
:106F8000483013F0F9FE08B300200CB0BDE8F087DC
:106F90000C200CB0BDE8F0870DF12C09CDE90A33C7
:106FA00021694B460AAA032001F096F90028AAD1CC
:106FB0000B99104808A3D3E90023A1FB0001FFF7B8
:106FC0009FF80A9B20F07F471F449CE750461BF028
:106FD00083FAD9E7AFF300808D49FD1A070000005E
:106FE000E8320020002AE784BD86F21A6D7803009B
:106FF00001B0030000CA9A3B485D00200000000079
:107000002DE9F04F05468BB08B46012002219A46B0
:1070100014461EF0F1FF00220221814601200EF0ED
:10702000DDFE3B494FF4D47228460EF067FE461D44
:10703000F6B2384B009532460121002010F066FA76
:1070400010F0FD0F0CD0344A3449354840F62F0378
:1070500026F06BFA404080F311884FF0030002DF06
:10706000304BA4FB0348204627A3D3E90023414625
:10707000FFF746F82C4B20F07F47A7FB0331072290
:10708000E01A02FB071168EB01014FF47A7200234A
:10709000FFF736F8CDE90170CDF800B008950695F8
:1070A000296995F9394021480491214931EA24019F
:1070B00028BF014605911F4C07944FF6FE710391BE
:1070C000534632460121002010F074F910F0FD0FF4
:1070D0000CD0114A1149124840F6440326F025FA13
:1070E000404080F311884FF0030002DFB9F1000F38
:1070F00002D10BB0BDE8F08F0122022110460BB087
:10710000BDE8F04F0EF06ABE8D49FD1A0700000081
:1071100038330020D1B50300E4710500A8720500E2
:10712000806C050000CA9A3B8D49FD1A491604007F
:10713000F117040079B503002DE9F043C469228DED
:107140004FF6FF739A428DB000F0888005462046C6
:1071500017F030FB95F82830012B00F00F81022B3F
:1071600000F00281002B00F0E18094F85071002FB4
:1071700040F0FD80E68DB4F83080002E71D1AA8CED
:1071800008F101060023CDE90A33B6B2002A70D017
:1071900094F93930002BC0F248810023A4F88A31D9
:1071A00095F82630D90740F1EF800023A4F88E31FE
:1071B0000DF127023146204617F040F8743000F0F8
:1071C0004681B4F888312BB1B34240F20D819B1B4C
:1071D000A4F88831B4F884312BB1B34240F2FB807B
:1071E0009B1BA4F88431258E17B9A84500F0EA80CE
:1071F0000135ADB294F8D13013F001065AD1DDE972
:107200000A130A46002B40F0ED80002900F0DC80D4
:107210001E461846228DE4690694CDE903570532CF
:10722000A74D0290CDE90016D2B2012100200595AC
:1072300010F054F910F0FD0F10D011F05DF88442F9
:107240000CD0A04AA049A14840F2155326F06DF990
:10725000404080F311884FF0030002DF0DB0BDE81D
:10726000F083AA8C46440023CDE90A33B6B2002A43
:107270008ED195F82630DA0797D4B4F88A31002BEE
:1072800000F08280B34240F2FA809B1BA4F88A315E
:10729000B4F88E31002B8BD09E4280F0DE809B1B99
:1072A0009BB20022062BA4F88E31228600F2AC801D
:1072B00001277DE794F939206FF30003002A84F851
:1072C000D13077DB94F87600C0F3C00100F00700FE
:1072D0001CF054FAB4F86E20B4F86C30134403F286
:1072E000D51303447A4A7B480721E3FB002110466B
:1072F00071A3D3E90023FEF703FFDDE90A1320F0B1
:107300007F4220692261904235BF161A801A002000
:1073100000260A46002B7FF47DAF56EA010C7FF46D
:1073200079AF002850D019461E4673E794F88E3086
:1073300003F01803182B7FF418AFA18DB4F8862141
:107340008B1D9A42C4BF931F5B1AB4F88211CCBF45
:107350009BB21346994200F08C80A4F88231A4F8C5
:107360008431A4F8882100E73D2784F8507139461C
:1073700020460DB0BDE8F04314F038BD0023A4F85A
:107380008831A4F88431F0E6B4F88E31002B83D133
:10739000628DB4F88C3140F2E24101FB02F242F21C
:1073A000107101FB0323013BB3FBF2F39BB2A4F882
:1073B0008E316FE794F87700012100F007001CF090
:1073C000DFF987E73D4615E7002D4BD00026114633
:1073D000304633461EE70023A4F88431204616F0D9
:1073E000CDFF00E7304615E710F0EEFE014600281D
:1073F0003BD00023A4F88831238DC3801B23037165
:10740000006810F0ABFEE5E694F939309342BFF620
:10741000CFAEB8F1000F7FF44BAFD4F878315A08F3
:10742000DB0743D4C4F87821C2E628460AAA0BA990
:1074300004F1D409FFF7F0F9484616F08DFC18B3B3
:10744000484616F089FC18B300232386A5E69DF86C
:107450002710204614F0CAFC00E70821204614F04B
:10746000C5FCFBE6002FB1D1F8E60123A4F8883172
:10747000B0E6B4F8881100297FF477AE6FE73E21BB
:10748000204614F0B3FCE9E6FF2014F067FCD7E7D0
:107490000246D4E91E010EF069FC0028D4D194F80C
:1074A0003C30580744BFA38D238676E642F0004265
:1074B000C4F87821FCE600BF8D49FD1A07000000E2
:1074C00039B50300E4710500F4720500806C050015
:1074D0008C49FD1A00CA9A3B2DE9F04F87B0CDE9DF
:1074E0000432BDF8442003780292BDF84820BDF86C
:1074F0004080BDF84C50468EB0F82E90B0F814B1D4
:10750000019104460392002B00F0CB80013EB6B2FD
:10751000A368D4F80C71721B92B2002B009209DAA6
:10752000E168626823F0004391422CBF7F18BF18C6
:10753000A360FF1A009A638D13FB02F39BB2B3FBA7
:10754000F8F218FB02F080B283421FFA82FA80F050
:107550009780C01A40F2E2425D4902FB00F0A0FBB6
:10756000010159A3D3E90023FEF7CAFD20F07F40B3
:107570000744D94494F839304D44AD1B554440F28A
:10758000E246DB09E58506FB08F500F08E80226CFB
:107590000099A36CDFF838B102FB1133A3641CF02F
:1075A000D9FA814694F87401C0F342001CF0D4FA71
:1075B000059B814406FB03F305FB09F9236509F5E7
:1075C0007429444B09F23F29A3FB09394FEA994337
:1075D00003FB0AF02364A5EB0309A36C6A080344C8
:1075E000963A934228BF1346C4E911230023C4F8F6
:1075F0007C31A0FB0B0134A3D3E90023FEF780FD0F
:10760000049B3F1A3448A0FB0330800A06FB00F0BD
:107610002DA3D3E90023A0FB0B01FEF771FD20F0A1
:107620007F46029BA385039BA4F88C312946204604
:10763000A4F82A8016F03EFE284BA18D2B44881D0D
:10764000B3FBF5F39AB29042A4F8862102D2521A03
:10765000063A92B2019BA4F8822113B10023A4F848
:107660008E313B464A4631462046FFF7C9FC94F826
:10767000803143F0010384F8803107B0BDE8F08F1A
:1076800008FB1231124840F2E24389B203FB01F1D8
:10769000A1FB00010CA3D3E90023FEF731FD3F1A43
:1076A00067E74E445E44B6B232E7049B0848A3FB4A
:1076B000000105A3D3E90023FEF722FD20F07F4659
:1076C000A9460136ADE700BF8D49FD1A070000004D
:1076D00000CA9A3B83DE1B435917B7D17FC3C90148
:1076E0002DE9F04F04460B68077F1668D3F800A019
:1076F000638CD0F81E0095B015464A7CADF84C302E
:10770000FF2AC7F3801389460D9212908DF83F30FF
:1077100072D198461A4612AB93E803000DF1400B64
:107720001090ADF84410F8090AF1710127680A9128
:107730005B460C900B9714F041FA0A99002843D14C
:1077400096F89A310C9A0A9068F3410362F30003A9
:1077500086F89A311098BBF80430C6F8A101A6F853
:10776000A531DAF87130C6F89B318B88A6F89F31C5
:10777000E38D94F83010A9722B81D4F82A306B6015
:10778000D4F83A30AB6105F1180094F83E3003713B
:1077900005210EF071FC6B7F00F03F0060F30503E4
:1077A0006B7794F83F30C3F30401A977A18EE98188
:1077B000012803F01F0389B206D91B3303F01F030E
:1077C0000B2B01D80A9A59BB0022CAF8142095F84D
:1077D00020300B9862F3000385F82030E56801261D
:1077E0002146267110F0B0FC28682E71294610F051
:1077F000B5FC15B0BDE8F08F0DF1400B10460DF152
:107800003F015A461AF0DEFB9DF83F80277F08F1C2
:1078100002085FFA88F88DF83F8008F0010282E7DD
:10782000D9F800305A60E38E2B82EB8940F2E248AF
:1078300008FB03F71146638E0A93304616F04EFD9F
:1078400094F83F3096F874215B0963F3430286F89D
:1078500074211CF07FF90C9096F87401C0F342007B
:107860001CF07AF90C9B184407FB00F0BA4B00F5AA
:10787000742000F23F20A3FB00307B08800C963B75
:107880006862AB6294F8313008FB03F3AB63238F7B
:10789000A6F88C313946304616F00CFDAF4BB04A95
:1078A000C6F890213B44B3FBF7F39AB2A6F88621C1
:1078B000298A881D824204DDC1F57F41FA310A44DC
:1078C00092B2A6F882216B68C6F87831234613F885
:1078D0001C2FC2F34018DA0700F104814FF48073C3
:1078E000A3839AF826001BF0C7F804F12B030028A5
:1078F00000F0EE80626AC4F82B20228D9A800D9BE6
:10790000FF2B00F0E980BDF84C301298A4F8293024
:10791000C4F82500BBF80430A4F8233010989DF873
:107920003F30C4F81F00A377EB8963862B8AA386B8
:10793000B6F88C31E38696F87431C3F3420384F8C9
:107940003830304613F07CFEA881E08021460B9849
:10795000D9F8044010F0F8FBAB89E3801C23D4F87D
:1079600000B02371B8F1000F40F0D18084F81C8082
:107970002146584610F0F2FB95F85B00B5F85080B0
:10798000B5F85240012100F007001BF0F9FE444415
:1079900004F2D514DFF8D4810444834671480721EA
:1079A000E4FB080131230024B360746068A3D3E9C9
:1079B0000023F460FEF7A4FB20F07F4030616D6A85
:1079C0000A9A7D1BD9F80C7040F2E24303FB027760
:1079D0000221224601200EF001FA504613F0B2F9BE
:1079E00007F2B2470246A7EB0B07A7FB08011746B1
:1079F00057A3D3E90023FEF783FBCDF804A0D9F801
:107A000008305949009120F07F48BA1C3A3BD2B265
:107A10002046434401210FF0BBFD012800F0828085
:107A20009AF82430DB076AD4304613F009FE4F4B36
:107A3000A5FB035A044646A3D3E900232846514632
:107A4000FEF75EFBD9F80830494A0792A3F13A09DC
:107A5000484B069620F07F47A7FB0331E81A464BB8
:107A6000059340F2D113089333694FF0000BCDE931
:107A700003B34FF0070303FB07116AEB01014FF457
:107A80007A720023FEF73CFB0534E4B2CDE90170C5
:107A9000CDF800804B462246012158460FF08AFC63
:107AA00010F0FD0F0CD0354A354936484FF4E973D4
:107AB00025F03BFD404080F311884FF0030002DFCA
:107AC0000122022110460EF089F915B0BDE8F08FB1
:107AD000C4F82B00988012E70022C4F82520A4F8EF
:107AE000292017E7254A28492648F82325F01DFDB7
:107AF000404080F311884FF0030002DFEEE60023E0
:107B000001220093184611460FF000FD8CE76B7FB1
:107B100043F040036B77281D1AF04CF84FF0010832
:107B2000E88323E710F0E8FB82453FF479AF134A7E
:107B30001649144840F2792325F0F7FC404080F3C1
:107B400011884FF0030002DF6AE700BFAFF3008047
:107B50008D49FD1A0700000083DE1B437FC3C90166
:107B6000404B4C008C49FD1A0D16040000CA9A3B8C
:107B7000DD1504008D49FD1A4916040094770500AF
:107B8000A8720500806C0500446F0500F0770500C1
:107B90002DE9F04F8DB01F46BDF860300793CDE959
:107BA0000501BDF868309DF85C90BDF864B00493A1
:107BB0000020164613F03AFB002800F0658109F01A
:107BC0000108044640460FF0CDFD0390B8F1000FC8
:107BD0006DD1169B03993A46404613F0EFFF0028FB
:107BE00040F06381236A04F11C020892002B65D0E7
:107BF000D4F820A0DAF8005007F0010B9AF85A00E8
:107C0000C0F3C00100F007001BF0B8FDBAF8521035
:107C1000BAF8502000F2D5130A441344CC48CD4A98
:107C20000721E3FB00211046C7A3D3E90023FEF799
:107C300067FA20F07F40286130461AF08DFC94F8F6
:107C400033306FF3410384F83330FF2384F834304A
:107C5000002E00F01D81A9F10203012B40F22981C1
:107C600094F84810089869F3420184F8481094F891
:107C700033106BF30001DDE9052384F83310169906
:107C80000968616216998988218504992186009680
:107C90000021FFF7B9F860641BF00AFF002840F0EC
:107CA00013812046FFF7DCF80DB0BDE8F08F062108
:107CB0000EF038F800288CD11220F5E710F02CFADD
:107CC0000990002800F0738113F0AEFC05460028EF
:107CD00000F06A8120300EF0E3F905F11C0A00285B
:107CE00040F01D81032105F124001BF0FBFB079BE5
:107CF000D5F888006B854FF6FF73A5F82CB02B855F
:107D0000002800F0198105F17C0205F178010EF0E0
:107D100015F8B5F8763023F4EF6323F0070343F446
:107D2000887343F00103A5F8763095F88E304FF054
:107D3000000B23F0070385F88E300121C5F888B0C9
:107D4000A5F88CB0284614F093FBC5F82EB0A5F822
:107D500032B005F1340019F0D7FE95F8393060F3F0
:107D60000503012185F839300DF12F001BF0BAFB16
:107D7000049B9DF82F20A5F88C31774B85F83BB0FC
:107D8000A3FB0213DB0803EB4303A2EB830295F88A
:107D90003930A98DA5F88EB103F03F0385F839304D
:107DA00095F83C30A5F884B1053223F0030385F83B
:107DB0003A20079A85F83C3040F2E24B674B0BFBC8
:107DC00002FB4FF4C0225B44C5F88821881DB3FB39
:107DD000FBF39AB28242A5F8862102DD063A521AD6
:107DE00092B2A5F88221284616F0ECF959462846A9
:107DF00016F060FA099BC5F85431002385F850311C
:107E000013F0D0FE95F8942160F3020285F89421D6
:107E100013F0CEFE95F8942160F3C50285F8942105
:107E200095F88021002363F3410285F8802105F154
:107E3000D40015F04FFF95F89A21169907F0010B21
:107E40006BF3410285F89A213122AA600023169A29
:107E50006B60EB601268C5F8A12195F89A218988BA
:107E6000A5F8A51169F30002039985F89A210A681B
:107E7000C5F89B218A88A5F89F21C4F820A0C5E9F0
:107E800005332B70ED61B9E60C200DB0BDE8F08F25
:107E90001AF0A2FF00283FF4DEAE169938463246AB
:107EA0001AF0D4FC84F83400D5E60B200DB0BDE800
:107EB000F08F00201AF074FB94F8333043F0020383
:107EC000C14684F83330CBE6256AEB6E63B1244AB1
:107ED0002449254840F21D4325F027FB404080F30C
:107EE00011884FF0030002DF05F1600105F15C002D
:107EF0000DF028FF064600283AD02F68EE66D7F826
:107F00005451002D42D0284610F00CF9384613F099
:107F100091FB0023032023620DB0BDE8F08F104ACF
:107F200012491148C12325F000FB404080F311881D
:107F30004FF0030002DFD5E605F18000C5F88800A8
:107F4000E1E600BFAFF300808D49FD1A0700000095
:107F500000CA9A3B8C49FD1AABAAAAAA7FC3C901E1
:107F600020780500D8700500806C0500DC6C0500E9
:107F7000104A1149114840F21F4325F0D6FA4040FB
:107F800080F311884FF0030002DFB6E7094A0A497F
:107F90000A4840F2264325F0C8FA404080F3118891
:107FA0004FF0030002DFAEE7099810F0BBF807209E
:107FB0007AE600BF2078050034720500806C050069
:107FC0002DE9F04F04468DB090F81C80238D406A57
:107FD000ADF82C30E307C8F3C0170E461546C8F3BA
:107FE00040180A9000F10D810023A383B37C707CBC
:107FF00013F001031CBFD4F81E30C4F82B3004F179
:108000002B0214BF638CC4F82B30FF28938004F13B
:10801000250904F11F0240F0E5800023BDF82C1073
:108020000A98C4F82530A9F80430A777C4F81F00CF
:1080300091803368D3F80090EB8963862B8AA386FE
:10804000B9F83030E3861BF083FD84F838002F68E0
:10805000384613F0F5FA0021A881E080384616F082
:108060003DF9D6F804A02068214610F06DF8AB89E0
:10807000AAF806301C23DAF800408AF80430B8F178
:10808000000F40F0CC808AF81C805146204610F04A
:1080900065F8BB687A6895F85A00B5F80E80F568FF
:1080A000674C934238BF1346C0F3C00103F1090A7D
:1080B00000F0070040F2E24303FB08F81BF05EFB10
:1080C000002202212D1A01200DF088FE484613F0EF
:1080D00083F8A5FB044558A3D3E90023834629462A
:1080E0002046FEF70DF8CDF80490B368554900918D
:1080F00020F07F490BF10402A3EB0A03D2B24B44F8
:10810000012100200FF044FA10F0FD0F0CD04E4A70
:108110004E494F4840F23D3325F007FA404080F386
:1081200011884FF0030002DF4FF0000B5B46032283
:108130000121CDF800B058460FF0E8F9384613F0A9
:108140007FFAB36806463E48A3EB0A0AA8FB000183
:1081500039A3D3E90023FDF7D3FF19463D4B08931C
:108160003D4B069340F26D33079709933B69804678
:10817000CDE904B3104600234FF47A72FDF7C0FF37
:10818000364B0722A9FB0331CDE9028002FB09111E
:10819000E01A65EB01014FF47A720023FDF7B0FF9E
:1081A0000536F6B2CDE900905346324601215846D5
:1081B0000FF01CF910F0FD0F0CD0234A234924487E
:1081C00040F26E3325F0B1F9404080F311884FF052
:1081D000030002DF0122022110460DB0BDE8F04F7E
:1081E0000DF0FCBD04F11E0119F0ECFEA37FBDF8FB
:1081F0002C200A98C4F825000233A377A9F804209C
:1082000017E7114A1649124840F2BD2325F08DF9AF
:10821000404080F311884FF0030002DFE4E66B7FFB
:1082200043F040036B77281D19F0C4FC4FF00108A0
:10823000E88328E7AFF300808D49FD1A07000000AE
:1082400000CA9A3BBD17040020780500A8720500FB
:10825000806C0500C1170400F11704008D49FD1A58
:10826000446F0500000000000538C3B2052B0CD890
:1082700070B580B20D4613F0EBF9044618B190F9D1
:108280003930002B03DA002070BD0020704790F8D1
:1082900076000F4EC0F3C00100F007001BF06EFA2D
:1082A0000C4A00F2B5500721E0FB0621104606A358
:1082B000D3E90023FDF724FF20F07F40286020460B
:1082C00070BD00BFAFF300808D49FD1A07000000AC
:1082D00000CA9A3B8C49FD1A2DE9F04F93B0FF2458
:1082E0000B930B1D0A930023CDE90E33054616466A
:1082F0008DF837409B464FF0040A1F469946984632
:1083000010AB0693564B0593564B03930FAB01935B
:108310000EAB00200093022310930490029033468A
:108320000DF1370229460FF077F9022815D0109B7E
:10833000CBB9FF2C26D03368BB4223D0BAF1000F53
:1083400040D00AF1FF3AFF245FFA8AFA8DF83740ED
:10835000D6E7294600200FF0ABF9109B022BF8D08E
:10836000109B002BE5D0404A404941484FF4F77339
:1083700025F0DBF8404080F311884FF0030002DF66
:10838000FF2CD8D19DF83700FF2829D011A9FFF77D
:108390006BFF0028B4D0FF2C0E9F119B0AD04146E2
:1083A000384609930FF09EF90A9B03EB09029042AD
:1083B000099B17D8B8469DF837403768DDF83CB0C0
:1083C00099469DE72B49284A29484FF4FB7325F02D
:1083D000ACF8404080F311884FF0030002DFB0E7B3
:1083E000FF2C34D024480721A9FB000301FB0931ED
:1083F00019A3D3E90023FDF783FE044600B14034FE
:108400001E4AABF57423A3F51073934216D81A488D
:108410000721A8FB000301FB08310FA3D3E90023C8
:10842000FDF76EFE164BA3FB0B2304EB93440B9B53
:10843000044400201C6013B0BDE8F08F0BF1E87B12
:108440000BF5D43B08F1FF380BF5A57BDFE76FF0A8
:10845000090013B0BDE8F08F00CA9A3B000000008D
:10846000CD1A0400D11A04006C780500B07805001C
:10847000806C0500B87805008D49FD1ABFBDF07FFE
:1084800083DE1B43000000002DE9F043C668476807
:1084900073683D491A68D0F80090A7F57423A3F5D6
:1084A00010738B4283B0804607D907F1E87707F550
:1084B000D43709F1FF3907F5A57773681169DD89AC
:1084C000CDF8049006F1100301AA0220FFF704FF83
:1084D00000284ED10199A1EB09031B0237D40846AD
:1084E00049460FF0FFF8034628480721A3FB000286
:1084F00001FB032122A3D3E90023FDF701FE346928
:108500000444002C346109DB40F2E24305FB03F331
:10851000A3422FD2E41AA342FCD33461D8F800302E
:108520001A48A3EB0903A3FB0002072101FB032167
:1085300013A3D3E90023FDF7E3FD154BA3FB073796
:10854000A0EB97402044306103B0BDE8F08348467B
:108550000FF0C8F803460D480721A3FB000201FBFA
:10856000032107A3D3E90023FDF7CAFD3469241AC8
:10857000C7E73469002CD1D103B0BDE8F08300BF58
:1085800000CA9A3B00000000BFBDF07F8D49FD1A74
:1085900083DE1B430000000010B5334C3349002339
:1085A00004F1FF3C14F83320072A02EB820E05D8B1
:1085B00011F83E206FF3451201F83E201CF83320DD
:1085C0006FF300020CF833200133082BEAD1284A5C
:1085D000284C002313700A7863F300020A7091F8A4
:1085E000282063F3000281F8282091F8502063F3DB
:1085F000000281F8502091F8782063F3000281F89E
:10860000782091F8A02063F3000281F8A02091F86F
:10861000C82063F3000281F8C82091F8F02063F3CA
:10862000000281F8F02091F8182163F3000281F82C
:108630001821114A9FED0A7B1370104B83ED007BCC
:108640000F4B236028B1BDE810400E490E482CF0B6
:1086500013B8BDE810400C482CF01CB8AFF30080F4
:10866000FFFFFFFFFFFFFFFF896A0020486900202E
:10867000087E002058680020077E0020583D00201A
:10868000A0BB0D008D270400283D00200000000045
:108690002DE9F04F8FB00DF137010446DFF8E0A06F
:1086A000DFF8E0800DF136000FF0D6FD9DF8363092
:1086B0009DF837B00B930FF013F8DAF80060A6FBC3
:1086C000085629A3D3E900230027814631462846CE
:1086D000FDF716FDCDE90777069420F07F44DAF820
:1086E0000400234B0593A0FB08011FA3D3E900233B
:1086F000FDF706FD1F4B20F07F40A4FB033107224E
:1087000002FB0411CDE90370E81A66EB01014FF496
:108710007A720023FDF7F4FC0097CDE901404B4647
:108720000B985A4603210EF045FE10F0FD0404D0CC
:108730006FF08B000FB0BDE8F08F0F480F4A002399
:1087400022F09CFA20B9DAF80C000FB0BDE8F08FE7
:108750009DF837209DF836000094234603210EF043
:10876000D5FE6FF07300E5E78D49FD1A07000000A4
:10877000DD2E04008D49FD1AFC6A0020447B0B00AD
:10878000146B002000CA9A3B38B50F4D04460EF01A
:10879000A7FFA9680EF0A6FF696803460B48B3FB64
:1087A000F4F4A1FB00011C4405A3D3E90023FDF769
:1087B000A7FC20F07F40844294BF0020012038BDF8
:1087C0008D49FD1A07000000146B002000CA9A3B77
:1087D000F0B5C468636883B00546002B63D11CF014
:1087E00051FF00201CF074FF002108461CF062FFBE
:1087F0000022252108201CF0A1FF454B019301A870
:108800001CF084FF434940F25B601DF02FF8237A8F
:10881000C3F3420262F30613204623721BF0BAFB35
:108820001AF0DAFA58BB637A9B071FD127682E68C3
:1088300038461AF041FF06446A6806F10901012032
:108840001DF06EF91DF05AFA204612F087FA811CCD
:108850003246C9B238461AF03DFF054670BB204685
:108860001AF0C4FE88B9002003B0F0BD012019F051
:1088700027FE4178821C00781DF0F2F8D6E7607A76
:1088800010F0030018BF0120F1E7234A23492448D0
:1088900040F22C4324F049FE404080F311884FF011
:1088A000030002DFDFE793F820309A0797D01D48D6
:1088B00021461CF0A5FE1CF093FFD4E7164A1A4986
:1088C000174840F2144324F030FE184B0721A5FB53
:1088D000030301FB05310CA3D3E90023FDF710FCD2
:1088E00013490246134824F020FE404080F31188CB
:1088F0004FF0030002DF104821461CF081FE1CF0FF
:108900006FFF6FF08B00AFE700CA9A3B00000000DA
:10891000D6BE898E55555500647C0500EC6D05006A
:10892000806C05005D380400006D05008D49FD1A5E
:10893000147D0500E87C0500653B04000000000094
:108940002DE9F041C46894F91630002B8CB0C0F2C8
:10895000FF80636805460E46002B40F0EE80A37D45
:108960006FF30003A3751CF08DFE00201CF0B0FE19
:10897000002108461CF09EFE0022252108201CF044
:10898000DDFE01200FF06AFD0746002800F0C780D9
:1089900007F11C001CF0FCFE874B0B930BA81CF08E
:1089A000B5FE864940F25B601CF060FFA07DC0F31D
:1089B000410025301AF0A0FE814821461CF020FE1F
:1089C000A37D9B0603D46368002B00F0A58096204E
:1089D0001DF09AF800231A46194618461CF0ACFF01
:1089E0001AF0FAF9002838D1A37D13F0180F59D1E5
:1089F000D4F800802F6840461AF05EFE07446A688B
:108A000007F1090100201DF08BF81DF077F91DF02A
:108A100003F8204612F0EEFB011DC9B240463A466B
:108A20001AF058FE8046002840F0998016B9636A13
:108A3000002B4ED1636843B1624B0122022100201A
:108A40009D600DF001FA002835D120461AF0CEFDC8
:108A5000D0B900200CB0BDE8F081A07DC0F3C0000B
:108A600019F02EFD07460DF12B001AF02DF879783C
:108A70008046BA1C38781CF0F3FF9DF82B000022CA
:108A800041461DF00BFAB3E74F4A5049504840F2B7
:108A90000B2324F04AFD404080F311884FF003007F
:108AA00002DFD6E7012019F00BFD4178821C007827
:108AB0001CF0D6FF9CE7444A4649454840F206234D
:108AC00024F033FD404080F311884FF0030002DFB3
:108AD000BBE7414A0792414A059240F2F3120093E4
:108AE0000892CDE90366CDE9016606943B4631461E
:108AF00003220EF05FFC10F0FD0F9BD0324A384984
:108B000033484FF4FA7324F010FD404080F311888D
:108B10004FF0030002DF8DE71CF06EFF60E72A4A8A
:108B200030492B484FF4C57324F0FFFC404080F3DC
:108B300011884FF0030002DF2AE7636893F82030C2
:108B4000D90705D4636893F820309A077FF507AFFB
:108B5000254821461CF054FD1CF042FE79E71A4AD4
:108B600022491B4840F2E51324F0DFFC204B07218B
:108B7000A8FB030301FB08310DA3D3E90023FDF794
:108B8000BFFA1C4902461C4824F0CFFC404080F349
:108B900011884FF0030002DF184821461CF030FD19
:108BA0001CF01EFE6FF08B0054E700BFAFF3008097
:108BB00000CA9A3B00000000D6BE898E555555006C
:108BC000A18C0200BC0C0020207D0500EC6D05008E
:108BD000806C0500F46D0500DD4604007D4704004F
:108BE00024700500B07C05005D380400006D0500B0
:108BF0008D49FD1A6C7D0500E87C0500B94504002F
:108C000038B504461BF088FCA37DA27DC3F3410365
:108C1000013303F00303032B08BF002363F3420275
:108C200014BF03F125002520A2751AF065FD6368C5
:108C30000BB123694BB90EF053FDC11C00201CF091
:108C4000E3FFBDE838401DF059B81DF00BF80546AC
:108C50000EF046FDC11C00201CF0D6FF1DF04EF8A2
:108C60001DF000F829460EF03DFD0B4A0346072192
:108C7000A0FB020201FB032105A3D3E90023FDF7BA
:108C80003FFA23691B1A236138BD00BFAFF3008090
:108C900000CA9A3B000000008D49FD1A0000000048
:108CA0002DE9F0478AB004461CF0CCFDC0B250B9A3
:108CB0001AF07AFDC44821461CF0A2FC0AB0BDE8B7
:108CC000F0471CF08DBD1CF0DDFD05461CF0FCFEE0
:108CD00007461CF003FF81461DF03AF906461DF0D9
:108CE00019F982461CF0B2FEEDB280461CF092FEED
:108CF0001AF05AFD002DDDD001200FF0AFFB054624
:108D0000002800F04D8117F0FF07F6B240F0E38035
:108D1000002E40F0DA804FF0FF093A464B463146CC
:108D200020461BF01FFE0028C4D02A7F6168002364
:108D30008DF823305FFA88F702F00F03002900F066
:108D4000EC80616891F82010880700F1E680072B1D
:108D5000B0D0A17D090740F14381002B40F0C480D1
:108D60006B7F063B1F2BA5D804200FF077FB002854
:108D7000A0D01CF0CBFF636A074643B9238C40F2B6
:108D8000712202FB03F3B0FBF3F203FB120723682B
:108D90001A698E4B0721A2FB030301FB023188A352
:108DA000D3E90023FDF7ACF96FF44A7C00EB0C0328
:108DB000BB42FFF47FAF1CF01FFE4846636819F00A
:108DC00069FEE37D9907804640F1E581002800F0C7
:108DD000E281824601271CF063FDCDE9027A09ABEE
:108DE000049305F11E0301932B7FC3F38013014607
:108DF000074600930022012320461BF0CDFD384694
:108E00001CF0CCFC1CF014FD002840F0CA81704816
:108E100021461CF0F5FB626892F8203043F0010314
:108E200082F82030A37D43F08003A3750FF038FB58
:108E3000172202714FF6FF72C28095F81CC082465D
:108E40003B46CCF3401C00F11C0207F1200E1D68CC
:108E500058689968DF68D7601033734515605060B3
:108E6000916002F11002F2D11B6813609AF81C3075
:108E7000CAF808406CF345138AF81C301CF0F2FE67
:108E8000002ECAF81000099BCAF8143008BF4FF032
:108E9000FF098AF81990E37D13F0020303D0B8F1BB
:108EA000000318BF01239AF81A2063F300028AF81E
:108EB0001A200FF0F5FACAF80C00DAF80000514653
:108EC0000AB0BDE8F0470FF019BB5FFA8AF019F05D
:108ED0006FFE814621E7A07D5FFA89F1C0F3C000F3
:108EE00019F0FCFD814618E7012B40F089806A7F6C
:108EF0000C2A7FF4DFAE2A7FCDF8009019460023BC
:108F00000193D20905F1240320461BF07FFC0028C1
:108F10007FF42AAF2B7F03F00F03002B70D16B7F00
:108F2000052B7FF6C7AE252B3FF6C4AEA27D02F01F
:108F30002102202A09D16268002A00F0C180052B95
:108F40007FF6B8AE252B3FF6B5AE63682BB12B7F0D
:108F500003F00F03072B7FF4ADAE03209DF82380B1
:108F60000FF07CFA054600283FF4A4AE0FF098FA03
:108F70004FF6FF73EB8005232B71002F3CD17F2030
:108F8000AB7E2876002E08BF4FF0FF0968F341033F
:108F9000286885F81990AB7629460FF0AFFA89E674
:108FA0000C4A0D490D4840F2C72324F0BEFA404058
:108FB00080F311884FF0030002DFA4E6AFF30080D6
:108FC00000CA9A3B00000000D14504008D49FD1AFB
:108FD000C1470400207D0500B07C0500806C0500C1
:108FE000B9F1FF0F8DF82490C2F380184BD0227E88
:108FF00091453FF4B2AE90E71CF018FDC0B2BFE758
:10900000062B8CD04521D94011F0010139D1012B1B
:1090100010D16B7F0C2B7FF44DAE2A7FCDF80090E2
:109020000DF123030193D20905F1240320461BF01F
:10903000EDFB08BB2B7F03F00F03042B7FF43AAE4C
:109040006B7F063B1F2B3FF635AEA37DDB077FF51D
:1090500031AE1CF025FC2B7F0278C3F38013B3EBF9
:10906000D21F7FF427AE0830062205F11E012BF037
:10907000DDFF00287FF41EAE6B7F002B7FF465AF11
:1090800018E66B7F5BE705F11E0A09AA51464046C8
:1090900019F044FE00283FF43DAFE37D03F00103E7
:1090A00043457FF437AF5146062204F108002BF008
:1090B000BDFF00287FF42EAF2B7F03F00F034CE69B
:1090C000962007921CF020FD079A10461CF0ECFB3E
:1090D00003200FF0C3F9804600283FF4EBAD0FF0FA
:1090E000DFF94FF6FF73A8F80630052388F804303F
:1090F000002F64D17F23002E88F8183014BF4B4610
:10910000FF2388F8193098F81A30D8F800006FF368
:10911000410388F81A3041460FF0F0F91CF0C0FB0B
:1091200006460322337862F3030333702B7F3278D1
:10913000C3F3801363F3C7120C2332704846737075
:1091400019F0A8FCE27D92073DD500283BD031788C
:10915000324641F0400102F8021B0168C6F80210D5
:1091600083889380D5F81E30B3606B8CB381304612
:109170001CF014FB1CF05CFB002835D11CF0BEFD7C
:10918000A37D204843F001032146A3750AB0BDE842
:10919000F0471CF035BAA77D04F1190AC7F3801710
:1091A00019E6194A19491A4840F2A44324F0BDF9B6
:1091B000404080F311884FF0030002DF27E61CF0E7
:1091C00035FCC3B297E7A37D3278C3F3801363F312
:1091D0008612334603F8022BD4F81920C6F8022071
:1091E000B4F81D209A80BDE7074A084908484FF4A3
:1091F000A56324F09AF9404080F311884FF00300F2
:1092000002DFBBE7E5450400207D0500B87C0500D2
:10921000806C0500000000002DE9F041C468A289BF
:109220004FF6FF739A4282B000F0C78005461BF0EC
:10923000B7FC2B89628AE08A1A4492B21044637F99
:10924000A28280B2411CE1825E064FF00001618281
:1092500004F1180100F18C8003F03F000B46A17F60
:10926000009004F11F0018F05DFC0646D4E90B23C2
:109270001344D4E90D0200210244E1626163A16A52
:10928000A26394F872208B4228BF0B4612F00402AE
:10929000236377D01CF0F6F900201CF019FA201D8A
:1092A0001CF034FA2389A17A40F25B6043EA014161
:1092B0001CF0DCFA30461AF01FFA214658481CF020
:1092C0009FF996201CF020FC94F85A2094F85B003B
:1092D000C2F3C003002102F0070200F007001CF0F7
:1092E0002BFB20461BF0BEFC27682E6838461AF080
:1092F000E3F906446A6806F1090100201CF010FC3D
:1093000080461CF0CFFC00201CF0E6FC236B94F898
:109310005B0003F13002A36B00F00700012103EBB7
:1093200042051CF049FA4544054494F85B0000F0FE
:109330000700022824D004280CBF4FF4BC73282354
:1093400001211D441CF03AFA28441CF09DFCA1891F
:1093500005313246C9B238461AF0BCF9054698BB09
:1093600020461AF043F9D0B9002002B0BDE8F081E0
:109370000A4603F03F03E18B18F020FC064675E730
:109380001823DDE7D4E917010CF0F0FC002881D1A7
:1093900094F8723043F0040384F872307AE7214A7B
:1093A0002149224840F2551324F0BFF8404080F391
:1093B00011884FF0030002DFD6E71D4821461CF05C
:1093C0001FF91CF00DFACFE7164A1A49174840F268
:1093D0004B1324F0AAF8184B0721A5FB030301FB4C
:1093E00005310DA3D3E90023FCF78AFE1349024699
:1093F000134824F09AF8404080F311884FF003009E
:1094000002DF104821461CF0FBF81CF0E9F96FF070
:109410008B00AAE7AFF3008000CA9A3B000000006F
:10942000BD4E0400EC7D0500EC6D0500806C050070
:109430005D380400006D05008D49FD1A407E050071
:10944000E87C050039380400F0B5C468A2894FF6FD
:10945000FF739A4285B000F08B8005461BF0A0FB9D
:109460002B89628AE08A1A4492B21044637FA282F6
:1094700080B2411CE1825E064FF00001618204F17E
:1094800018015FD403F03F000B46A17F009004F168
:109490001F0018F047FB0646204603A91BF0B0FC4E
:1094A000039B94F872101A7861F3C3021A70039A3E
:1094B00094F872301178C3F3400363F382011170A2
:1094C0001CF0E0F800201CF003F9201D1CF01EF930
:1094D0002389A17A40F25B6043EA01411CF0C6F99E
:1094E00030461AF009F9039920461BF05DFC21462D
:1094F00037481CF085F896201CF006FB94F85B00BA
:1095000000F007001CF0D0F927682E6838461AF0E2
:10951000D3F806446A6806F1090101201CF000FB3B
:109520001CF0ECFBA18905313246C9B238461AF06D
:10953000D1F8054618BB20461AF058F850B900205B
:1095400005B0F0BD0A4603F03F03E18B18F036FB8F
:109550000646A1E71F4A2049204840F2031323F0A2
:10956000E4FF404080F311884FF0030002DFE6E79C
:109570001B4821461CF044F81CF032F9DFE7154A7D
:1095800018491648F92323F0D0FF174B0721A5FBF4
:10959000030301FB05310CA3D3E90023FCF7B0FD65
:1095A00012490246124823F0C0FF404080F3118860
:1095B0004FF0030002DF0F4821461CF021F81CF099
:1095C0000FF96FF08B00BBE700CA9A3B0000000068
:1095D000F14C04004C7E0500EC6D0500806C05002C
:1095E0005D380400006D05008D49FD1A9C7E050064
:1095F000E87C0500393804002DE9F0472DED028B99
:109600009FED498B4A4E84B004464FF02003EFF3A0
:10961000118783F31288BFF36F8FD4F8C8508DB9C8
:10962000022104F1E0002AF070FF002843D100235A
:109630008DED008B029304F1D00239463D4821F0B4
:10964000FBFFE2E7D4F8CC202B68C4F8C830954281
:1096500008BFC4F8CC30D4F8E03043F00203C4F8BB
:10966000E030EB6823F0040343F00103EB606B6828
:1096700087F31188BFF36F8F284698474FF0200378
:10968000EFF3118983F31288BFF36F8FEB689907AB
:1096900023F0010219D4EA60D4F8E03023F0020389
:1096A000C4F8E03089F31188BFF36F8FDB05ACD4C9
:1096B00021F0A2FEA9E704F1D805002201212846E5
:1096C0002BF029F90028F8D1B1E7306823F0030323
:1096D000EB600028E0D00027D0F80080BA460028D0
:1096E000DAD04268954201460BD1016897B9726899
:1096F0003160824200D1716040F808AB21F098FAE5
:109700003946B8F1000F0BD0D8F8002040460F467C
:109710009046E4E739607268824208BF7760EBE701
:109720004246F3E7AFF30080FFFFFFFFFFFFFFFFBD
:10973000A47B00201E7E0020014821F07BBB00BFDF
:10974000D002002007B52BF023F94FF47A72A0FB6A
:10975000020302FB0131C00B074A40EA414010609E
:1097600000234FF400420548CDE9002322F042F9DE
:10977000002003B05DF804FB00410020D00F002062
:10978000014B187800F01CBBCA7C0020044B1A78EF
:10979000824202D01870FFF7F3BF0020704700BF6D
:1097A000CA7C002008B52BF0F3F84FF47A72A0FBC6
:1097B000020302FB0131084AC30B126843EA41432A
:1097C0009B1A47F23052934204DDBDE80840012065
:1097D000FFF7DCBF08BD00BF0041002008B52BF03B
:1097E000D7F84FF47A72A0FB020302FB0131C00BE1
:1097F000044A40EA41401060BDE808400020FFF7FD
:10980000C5BF00BF00410020014B1878704700BF62
:10981000CA7C0020F8B5044610B900252846F8BDDA
:109820000378002BF9D00F4E0F4FBE420FD30D4ED1
:10983000BE42F2D230682AF0BBFC30B13568214616
:109840002868FCF7C7FD0028E8D00436F0E7306848
:109850002AF0AEFC18B135682B68A342DED004367E
:10986000E3E700BF70A0050098A0050070B5194C93
:10987000194D8CB00022002303A9204621F094F852
:1098800008B10CB070BD2B68059E5868DDE9031265
:1098900022F0E7FD0028EDDBFF238DF81830B6FA43
:1098A00086F35B0907908DF820302BF071F84FF4A8
:1098B0007A72A0FB020302FB0131C00B40EA414077
:1098C000C90B8DE8030006ABCDE90A010FCB00F010
:1098D00091FACFE738110020144200201FB50A4C3E
:1098E0002468A46884420DD183F00103CDE90112FC
:1098F000039306480022002301A920F0FFFF04483B
:1099000021F098FA04B010BD144200203811002054
:10991000044200201FB50023CDE90233044B8DF82B
:109920000C0001A8019322F0CCFD05B05DF804FB0A
:10993000545905000268034B9A420CBF08300020BE
:10994000704700BF54590500014B03604020704729
:1099500004410020044B1A68044B9A4214BF6FF074
:1099600012000020704700BF14420020405905003B
:1099700038B5044628B3144D2B6883421FD02BB151
:10998000986818B183685B6803B198470F49104B1A
:109990008C4214BFED2100214022002022F07BFDEB
:1099A00000280DDBA0682C6048B1836809491B685A
:1099B00098472B68986883689B6803B19847002094
:1099C00038BD6FF01200FBE714420020405905003B
:1099D00004410020DD98020038B5054648B9064824
:1099E000FFF7C6FF041E02DB2846FFF793FF204661
:1099F00038BD6FF01504FAE740590500F7B50C467D
:109A000015460D4901AA1E4624F0EDF868B1019BE8
:109A10006BB9012C0DD1094F224639463046A84773
:109A2000002802DD3878FFF7D7FF03B0F0BD002033
:109A3000FBE76FF01500F8E7CC810500680F002008
:109A40000148FFF795BF00BF4059050008B5074919
:109A500007482AF0CDFD074A002342F8043B0133B2
:109A6000402BFAD1BDE80840FFF7EABF6D9802002D
:109A7000044200200441002030B51C4C04EB0014CB
:109A80008FB0606883683A21DB68984758BB60688C
:109A90006189836804AD1B692A46984718BB95E81D
:109AA00003000123069307AB83E803006389ADF845
:109AB00024302AF06DFF4FF47A75A0FB053205FBC8
:109AC0000121DB0B43EA4143C90BCDE90A31237B7A
:109AD0008DF830300EAB13E90F008DE80F0006ABA8
:109AE0000FCB00F0ADF90FB030BD00BFF002002089
:109AF00010B5134CBFF35B8F54E8002F22F0010127
:109B000044E800100028F7D1BFF35B8FD20702D5DD
:109B10000020FFF7B1FFBFF35B8F54E8003F23F055
:109B2000020244E800210029F7D1BFF35B8F9B07B5
:109B300004D5BDE810400120FFF79EBF10BD00BF57
:109B400018420020064901EB0012506830B18368CA
:109B50009B68114608310BB1024A1847704700BF95
:109B6000F0020020699B020010B5104C0C1B102C59
:109B70001BD824112AF0DCFB90B1BFF35B8F0123CB
:109B80000B4AA34052E8000F184342E800010029A5
:109B9000F8D1BFF35B8F0748BDE8104021F04AB908
:109BA0002046BDE81040FFF767BF10BDF802002057
:109BB00018420020E002002002289ABF024B03EB6B
:109BC00040000020704700BF6C0E0020F8B50F4D1C
:109BD0000F4E761B07460C4605EBC105C6F3C706BC
:109BE000A64201DC00200CE02A683B689A4209D1B9
:109BF0003C716B6838461B68984718B1431E012BAF
:109C0000F0D9F8BD01340835EAE700BFC48B050080
:109C10001C8C05000D4B0E4AD21A70B4C2F3C70259
:109C20000024A24203DC6FF0150070BC70471E6870
:109C30000568AE4206D15D688D4203D1E1B270BCC9
:109C4000FFF7C4BF01340833EBE700BFC48B050046
:109C50001C8C050000B58BB0064B074A28216846CE
:109C600021F0A0FF05490122684603F01FFD0BB05B
:109C70005DF804FB148205001E820500CB7C0020E9
:109C80002DE9F8434768044600254FF001087B683A
:109C9000AB420DD8214922482AF0EEFCA3681B688C
:109CA0000BB120469847398939BB0020BDE8F883BD
:109CB0003A6802EBC50352F835001979DB88D0F811
:109CC00010C0D0F80890DCF80060DA0754BF43F405
:109CD000B01383F4D01323F4801208FA01FEDB07DB
:109CE0004CBF46EA0E0626EA0E06CCF80060D9F80C
:109CF0000030984770B90135C9E740F2E7304FF4BA
:109D00007A72002300EBC1300021FCF7F9F921F051
:109D1000F5FBCAE76FF00400C8E700BF559C0200DE
:109D20005814002008B5074B5A784AB901221A7016
:109D300005480022002321F0E5F8044822F0D7FB73
:109D4000002008BDCB7C002058140020F8530500EB
:109D500008B54FF4F0120023024821F007F900EA99
:109D6000E07008BD58140020F7B50C46164611499E
:109D700001AA1F4623F037FFB0B1019BA3B9012C04
:109D800015D10D4D224629463846B047002806DB3E
:109D90002B780A486C7023B122F0A9FB002003B095
:109DA000F0BD22F0C0FBF9E76FF00100F7E76FF0BC
:109DB0001500F4E714820500CB7C0020F853050061
:109DC0001FB50023CDE90233044B8DF80C0001A828
:109DD000019322F076FB05B05DF804FB785905008D
:109DE0000268034B9A420CBF08300020704700BF46
:109DF0007859050084B030B589B00CAC84E80F0008
:109E0000002301930CAD084B00930FCD02AC0FC49F
:109E100095E8030084E80300684622F052FB09B08D
:109E2000BDE8304004B070477C5905000268034B20
:109E30009A420CBF08300020704700BF7C590500D3
:109E400084B030B58BB00EAC84E80F0000230193D2
:109E50000EAD084B00930FCD02AC0FC495E80F0078
:109E600084E80F00684622F02CFB0BB0BDE83040C0
:109E700004B07047805905000268034B9A420CBF3A
:109E800008300020704700BF805905001FB500232F
:109E9000CDE90233044B8DF80C0001A8019322F0A8
:109EA00010FB05B05DF804FB8459050082B038B59D
:109EB00004A981E80C000546114820F0DBFA0446AD
:109EC000A0B16B68012B0CD0022B05D0A3B9BDE863
:109ED000384002B022F065BB22F06AFB0028204621
:109EE000F5DCBDE8384002B022F054BB6FF004004E
:109EF000BDE8384002B070476FF08500F8E700BF5A
:109F00001482050082B010B502A981E80C00044655
:109F10000B4820F0AFFA78B16368022B04D0002020
:109F2000BDE8104002B0704722F042FB0028CCBFD1
:109F3000002001206060F2E76FF00400F0E700BF4E
:109F4000148205000D4A52F82030013342F82030C7
:109F50000B4A0123117883400B430A490978DBB28D
:109F6000137023EA01030849084A097850780B4323
:109F7000181A537018BF0120704700BF1C42002000
:109F8000CF7C0020CD7C0020CE7C0020760F0020EE
:109F900010B5114A52F82030002B19DD013B42F870
:109FA00020300E4A2BB913780121814023EA0103A6
:109FB00013700B480B4B047810780B4A59781278C1
:109FC00020EA040010435870401A18BF012010BD49
:109FD0006FF01500FBE700BF1C420020CF7C002083
:109FE000CD7C0020760F0020CE7C0020044A012387
:109FF00012788340D8B213401B1A58425841704718
:10A00000CF7C002010B5084B084A1870084B5178D7
:10A010001C78084B1B7823EA040318435070401A3D
:10A0200018BF012010BD00BFCE7C0020760F00209D
:10A03000CD7C0020CF7C0020074B00221A70074BFC
:10A04000074A1978074B50781B7823EA0103181A3E
:10A05000537018BF01207047CE7C0020CD7C0020BB
:10A06000760F0020CF7C0020A0F1E003072B03D85F
:10A070002030C0B2FFF766BF064B062213F8011F5F
:10A0800019B1013AFAD10020704718700028F8D0B1
:10A09000F9E700BF780F0020A0F1E003072B10B410
:10A0A00005D820305DF8044BC0B2FFF771BF002324
:10A0B000064A194612F8014F0133A04208BF117039
:10A0C000062BF7D100205DF8044B7047780F002075
:10A0D000A0F1E003072B03D82030C0B2FFF786BF02
:10A0E000064A002312F8011F884204D00133062BD0
:10A0F000F8D1002070470120704700BF780F002082
:10A10000024B00221A605A60704700BF770F002090
:10A11000B0F5805F10B510D20949002301EB43026E
:10A12000B2F8014024B10133062BF7D1002010BD55
:10A13000A2F801000028F6D0F8E76FF08500F6E7F6
:10A14000690F002030B50023074C194604EB430289
:10A150000133B2F80150854204BF51709170062B53
:10A16000F4D1002030BD00BF690F0020024B002257
:10A170001A605A609A6070476A0F0020074A0023ED
:10A1800002EB4301B1F80110814204D00133062BE8
:10A19000F6D1002070470120704700BF690F0020F2
:10A1A00000487047760F002000487047690F002074
:10A1B0002DE9F0410B4E337883B10B4CDFF82C8046
:10A1C000002542F20F772046414601352AF054FA25
:10A1D0000A2D44F8207C04F15804F4D1002030709A
:10A1E000BDE8F0817F0F0020E81A002003C80400BA
:10A1F00030B5C269037ED17D91B0044609B1032B0D
:10A2000039D0023B012B517D07D8002933D120469C
:10A2100011B0BDE8304022F0CBBA21B1937D13B923
:10A22000204622F067FA0AAD1822002128462AF0BB
:10A2300049FF23798DF838300023CDE9073309939E
:10A24000E36922689B680793D4E90401E3680893F3
:10A250000A4B0B92CDE90C01C3E902011A600123FC
:10A26000049310AB13E90F008DE80F0007A895E8E1
:10A270000C0022F074F811B030BD00BF00000020C7
:10A280000B4A30B500230446282000FB03F18D184B
:10A29000515C41B90FCC0FC50FCC0FC594E803003A
:10A2A00085E8030030BD0133282BEED1FAE700BF6B
:10A2B000881400202DE9F843027E0346002A6ED15F
:10A2C0003B4D2A6882426AD1D269547D24B119B9C2
:10A2D000BDE8F84322F06CBA107D032828D8DFE8E7
:10A2E00000F0020E1F600139042921D8DFE801F0D7
:10A2F0001E0320051E00022119E0032117E0013989
:10A30000042915D801A050F821F000BF2DA30200A8
:10A3100031A30200F7A20200FBA202002DA302005B
:10A320000429EAD001F0FB01012901D101211976AC
:10A33000197EA1B3D06900280DDD5C6D611C0AD0C7
:10A340001C32002152F8046FA64204D00131884229
:10A35000F8D101221A76002218462A60FFF748FF3A
:10A360002C68E4B9134EDFF85080A14616F8087C3B
:10A37000AFB12B6806F8089C23B14FF4A4700021FC
:10A3800021F0BCF8012F01D0022F03D14146304605
:10A39000FFF740FC0134282C06F12806E6D1BDE881
:10A3A000F8830229A7D0BFD904390129BED9BFE754
:10A3B0003C42002090140020305A050082B02DE964
:10A3C000F0412F4E06A981E80C000024582202FB20
:10A3D00004F0851931588B424AD1203030442AF09C
:10A3E00059F9EB691968D5E904238A1843EBE1733D
:10A3F00008998A42099A9341804603DA0421284643
:10A40000FFF758FF582707FB046701212846FFF78D
:10A4100051FFFB69DB7D53B13B7E032B07D12846FF
:10A4200022F090F9012328463B76FFF7E1FE28460B
:10A4300022F088F9582303FB0463DB695A7D22B1BB
:10A440009B7D13B1284622F055F918F1770F4FF094
:10A4500058031DBF5C4342F20F72331903FB0463C0
:10A4600017BF3251012200221A7683F8502002E0F1
:10A4700001340A2CABD1BDE8F041002002B0704796
:10A48000C81A002082B02DE9F047044608A90068E8
:10A4900081E80C0021F00DFF3B4B1D687DB9D4E92C
:10A4A00001C23A4F4FF0580E42F20F780EFB05F6FC
:10A4B000F419B959414507D001350A2DF6D1BDE847
:10A4C000F047002002B07047D0F804809DF83010AB
:10A4D000DDF82490DFF8B8E02171C4E902C2DDE9BB
:10A4E0000AC0C4E904C000214FF0FF3247F80690CB
:10A4F00021766265C4F81C80DEE902211C60D8F870
:10A50000103013EB020A41EBE373D44570EB030305
:10A510000CDBDEF8003099450CD1D8F80C309A18D5
:10A5200041EBE371944570EB010103DA052120460C
:10A53000FFF7C0FE20460021FFF7BCFE582303FBB7
:10A540000575D8F8004029690C442AF021FA4FF427
:10A550007A72A0FB020302FB0131C30B43EA4143C1
:10A56000E11A21EAE17140F2E7304FF47A720023F8
:10A5700000EBC1304914FBF7C3FD203602460B4601
:10A58000B81920F0BFFC9AE73C420020C81A00200E
:10A59000000000202DE9F0418AB00446FFF746FC98
:10A5A00000286CD02046FFF741FC524D4768044616
:10A5B000002642F20F782B689F420CD043450AD008
:10A5C000EB69DB7D3BB12B7E032B04D102232B7681
:10A5D0002846FFF70DFE01360A2E05F15805EAD18F
:10A5E000454D286808B900202CE0C369227A197EFD
:10A5F000914204D0426D013204BF62684265016835
:10A6000062689142EFD01968D0E904238A1843EBBD
:10A61000E173D4E90461B2428B4116DB237ADBB1EA
:10A620000123214602A88DF8003021F098FF6846EA
:10A63000FFF726FE217A2868C1F10301C9B2FFF7AE
:10A6400039FE02200AB0BDE8F0810421FFF732FE96
:10A650002B68002BC7D0E1E76068284A11780029F1
:10A66000C1D0012905D15169884202D1117E00294A
:10A67000D6D10133282B02F12802EFD1B3E72046CF
:10A6800000F058FB0028DDD0204600F053FB837A11
:10A6900001469BB14368E03B072B02D80378072BA8
:10A6A0000CD0174BD1E90402D3E9025485429441FE
:10A6B000BEBFC3E902024FF000441C600E4B186895
:10A6C0000028BFD04B68E03B072B8CD80B78072BBA
:10A6D00089D1C3695B7D13B1007E0028B2D002A886
:10A6E00002248DF8004022F0EBF96846FFF7C8FD20
:10A6F000A7E700BFC81A00203C42002088140020B1
:10A700000000002082B02DE9F84308A90068109CE1
:10A7100081E80C00174621F0CCFD056909982368F3
:10A72000666840384200F3B114183C4405EBC40E8F
:10A73000DFF84890DEF80410314455F8346091FB9E
:10A74000F9F833440E9E434436884FF4B47C09FB39
:10A750001811BCFBF6FC93FBFCF60CFB163345F81A
:10A760003430CEF8041002443A440C32002045F84C
:10A770002260BDE8F84302B0704700BF40420F00BE
:10A7800030B593B0182200210CA82AF09BFC254D6F
:10A7900006AC00220CA90023284620F005F901464A
:10A7A00000283DD1182220462AF08CFC0C9B0793F0
:10A7B0002AF0EEF84FF47A72A0FB020302FB01319B
:10A7C0009DF834308DF82830C00B9DF8443040EAB5
:10A7D0004140C90B13F00102CDE9080118BF012265
:10A7E000049208AB0FCB8DE80F000EA894E80C0084
:10A7F00021F0B5FD119B012BCBD9C3F35E044FF4BF
:10A80000004540F2E73000214FF47A720023E5FB67
:10A810000401FBF775FC02460B46034820F072FB6F
:10A8200013B030BD681100201000002030B58BB08F
:10A8300001AC84E80E0042680492027C8DF814207A
:10A8400094E8070006AD85E80B000F9A9DF83830B4
:10A8500043EA4203099309480022002304A920F097
:10A860004DF8002804DB064829F012FF10B1002043
:10A870000BB030BD0248FFF783FFF8E768110020F6
:10A880001000002070B500250646056000F0D4FBDE
:10A89000044678B101F094FB30B900F0C5FC012307
:10A8A00070603370304670BD064B1B78012BF4D0BE
:10A8B0002846F5E701F084FB0028EED02346204629
:10A8C000EEE700BFD07C002008B5094B1B7823B110
:10A8D000012B06D06FF0850008BDBDE8084022F0CE
:10A8E00075BAFFF75DFCBDE80840013000F0DABD45
:10A8F0008842002008B5094B1B7823B1012B06D0F4
:10A900006FF0850008BDBDE8084022F067BAFFF788
:10A910004BFCBDE80840013000F0EABD8842002051
:10A9200037B508490848094D6C4629F0A5FE204670
:10A93000FFF7A8FF94E8030085E80300002003B0B8
:10A9400030BD00BF51A90200381E002088420020FF
:10A9500002490348012202F0A9BE00BFD07C0020BA
:10A96000FE82050082B00DF1080C0CE903001946C7
:10A970009DF8003010461BB1012B05D0054A00E0C0
:10A98000054A02B021F00EB9019B044A02B021F041
:10A9900009B900BF1D830500128305001683050059
:10A9A00030B589B001AD0F4C2846FFF76BFF94E836
:10A9B0000C0095E8030021F0ADFF80B921F0D1FF34
:10A9C00095E803000A2305AA84E80300FFF7CAFFFD
:10A9D00094E8030003AB83E8030000F023F809B018
:10A9E00030BD00BF8842002070B50C4615460B49AB
:10A9F00000221E4623F0F7F808B9002070BD012C94
:10AA000008D1074922463046A8470028F6DDFFF75F
:10AA1000C7FFF2E76FF01500F0E700BF08830500FD
:10AA2000D07C00207FB56B4683E8030093E80300E9
:10AA3000002206AB03E90300039202A8034A029234
:10AA400021F03FFD07B05DF804FB00BF805A050010
:10AA500002281FB530D830BB11B9002004B010BD9A
:10AA6000174B1A68012383401343154C9A42236005
:10AA7000F3D08DF800008DF8011029F089FF4FF414
:10AA80007A72A0FB020302FB0131C00B40EA414095
:10AA9000C90BCDE9020104AB13E90F0004B0BDE816
:10AAA000104000F015B9064B1A680029DAD10123CD
:10AAB000834022EA0303D8E76FF01500CEE700BF1A
:10AAC00090430020014B196821F0A6BF904300205D
:10AAD0003F2937B504460D4602D9002003B030BDEA
:10AAE0000228FAD801A8FEF72FFF0028F5DB8542DF
:10AAF000F3DA019B53F825303F2BEED84FF4407228
:10AB000002FB04F00C2202FB0300014B1844E5E7B2
:10AB10008C5A05002DE9F74FDDE90CABDFF84C90BE
:10AB200007460C4615461AB10F4B1B6849F82130F1
:10AB300002265FFA86F859F82410404621F06CFF8F
:10AB400030B9013EF5D26FF0850003B0BDE8F08F5B
:10AB5000CDE900AB2B4622464146384621F06CFF3A
:10AB60000028F2DDEDE700BF904300209042002076
:10AB70002DE9F04F2DED028B9FB0544ECDE90A1216
:10AB80009DED2A8B00EB4003804606EB83060225F1
:10AB90004FF0000A00F140090DF1680B306B21F015
:10ABA00088FB002800F0878000234046CDE9103361
:10ABB000FFF702F8CDE90C598DED0E8B0DF1300C3D
:10ABC0000446BCE80F0012AF0FC79CE8030087E8FB
:10ABD0000300CDE912598DED148B0DF1480EBEE83E
:10ABE0000F000DF1600CACE80F0097E803008CE853
:10ABF0000300306B21F05DFB00285CD083681F6987
:10AC0000002F58D006F1300309930A9B06930B9B43
:10AC1000CDE904439BE80F008DE80F00DDE9182320
:10AC20000998B847002846DBBAF1000F2FD1E8B2E7
:10AC3000FFF748FF80F00107FFB2CDE90C598DED19
:10AC40000E8B0DF1300CBCE80F0012AC0FC49CE869
:10AC50000300FFB284E80300CDE912598DED148B97
:10AC60000DF1480EBEE80F000DF1600CACE80F00CE
:10AC700094E803008CE80300306B21F01AFB40B924
:10AC80006FF015001FB0BDEC028BBDE8F08F0127FF
:10AC9000D3E783685C6914B96FF08500F2E7049725
:10ACA0009BE80F008DE80F00DDE918230998A04705
:10ACB000002808D0E6DB013D6B1CA6F118067FF4E6
:10ACC0006DAF0020DEE74FF0010AF4E7300300200B
:10ACD00010B58AB06C4684E80F0000230593064B3C
:10ACE000049394E80F000AAC04E90F0004A821F0D3
:10ACF000E8FB0AB010BD00BF8C63050084B030B51E
:10AD000089B00CAC84E80F00002301930CAD084B14
:10AD100000930FCD02AC0FC495E8030084E8030054
:10AD2000684621F0CEFB09B0BDE8304004B0704762
:10AD3000946305000268034B9A420CBF0830002060
:10AD4000704700BF946305007FB56B4683E803003E
:10AD500093E80300002206AB03E90300039202A874
:10AD6000034A029221F0ADFB07B05DF804FB00BF7F
:10AD700098630500074B1A78074B82B0162102FB37
:10AD8000013301938DF8002002AB13E9030002B0F8
:10AD9000FFF7DABFD87C0020D97C002002490348A5
:10ADA000012202F083BC00BFD87C0020C2830500D2
:10ADB00008B5002004F0BAFE002802DA10F1780F7E
:10ADC00007D1044802F002FD0348044929F054FC6D
:10ADD000002008BDC4030020681E00209DAD0200B5
:10ADE00070B503788AB004460E4607AD032B20D811
:10ADF000DFE803F002191B1D11492846FBF7F4FA9E
:10AE0000059563780493A3780393E37802932379F9
:10AE1000019363790093A3790A4A1E21304620F0FA
:10AE2000C1FE0AB070BD0849E7E70849E5E70849EF
:10AE3000E3E7084A0A21284620F0B4FEE0E700BF15
:10AE4000D5830500FE830500DC830500E383050050
:10AE5000ED830500F783050010B592B0044625F098
:10AE6000DCFA01A9FFF7BCFF09A9204606F016FD90
:10AE70009DF82530012B13D10A481FF0DBFF204637
:10AE800025F0CBFA084B19780F22162313FB012368
:10AE90000649194421F05BFE10B905481FF0CAFFAE
:10AEA00012B010BDDC030020D87C0020D97C00202B
:10AEB000EC0300202DE9F0418AB00D4616462849E2
:10AEC0006A4604461F4622F08EFEF8B10098E8B1AB
:10AED0000A2201A920F02AFF019B1B7803BB162D33
:10AEE0001ED1C4B2042C1BD8DFF888806C432A46DC
:10AEF00008EB04013846B047002813DD04F10F00C9
:10AF000002A94044FFF76CFF00200BE015496A4698
:10AF1000204622F068FE78B1009B6BB9012D04D069
:10AF20006FF015000AB0BDE8F0810F492A46384697
:10AF3000B04700EAE070F5E70C496A46204622F087
:10AF400052FE0028E0D000980028DDD0072DE7D180
:10AF50002AF068F80028D7D105492A46E7E700BF5C
:10AF600021840500C6830500D87C00202A840500C2
:10AF7000D17C0020D97C002008B5074B0748197800
:10AF80000F22162313FB01231844054921F0DFFD8E
:10AF9000B0FA80F0400908BDD87C0020D97C0020A0
:10AFA000598705002DE9F0410C468EB005464FF05B
:10AFB000160806A9204615FB08F7FFF711FF0D4EEE
:10AFC000216807F10F029319B150A2889A80A279E3
:10AFD0009A7109492A4601A820F010FE4246F1194B
:10AFE00001A802F063FB05481FF024FF0EB0BDE886
:10AFF000F08100BFD97C00203F840500EC030020D5
:10B0000038B50F23162414FB0034094B09491C449E
:10B010000546204621F09BFD48B12146002004F062
:10B0200069FC28460349BDE83840FFF7BBBF38BD7F
:10B03000D97C00205987050010B5124B12491A78A7
:10B0400016240F2314FB0234104B1C448AB02046F4
:10B0500021F07DFD10B900200AB010BD214600206E
:10B0600006F09CFB04460028F5D001A906F016FC6A
:10B07000204625F0B4F89DF82400831E584258411C
:10B08000EAE700BFD87C002059870500D97C002062
:10B09000F0B58DB0FFF770FF98B9FFF7CDFF80F0E6
:10B0A00001035B00DBB2214D2A7803EB0213112B65
:10B0B00009DC022B2DD0102B23D0002420460DB00C
:10B0C000F0BD0223EFE7202B1BD0122BF5D105F0AA
:10B0D0001BFB00232B7004460028EFD1144F0FCF29
:10B0E00002AE0FC63B681349336003220094234627
:10B0F00002A805F0D7FA04460028DFD102232B70FE
:10B10000DBE705F001FB00232B7004460028D4D0B8
:10B11000D4E7074E0FCE07AC0FC43368236000237B
:10B1200004490093032207A8E3E700BF477D0020FE
:10B13000F0560500FC03002030B593B0054625F01D
:10B140006CF901A90446FFF74BFE09A9284606F051
:10B15000A5FB9DF82530012B05D1FFF70DFF2146FA
:10B1600018B904F0C7FB13B030BD034B1878FFF7D4
:10B1700019FFFFF78DFFF6E7D87C002030B593B0BC
:10B180000D4609A9044606F089FB9DF82530012BE0
:10B190000BD1204625F041F901A9FFF721FE0E4B06
:10B1A00000221A701DB1FFF773FF13B030BDFFF717
:10B1B0006FFF204625F031F9084B19780F2216232E
:10B1C00013FB01230649194421F0C1FC0028ECD1EE
:10B1D00004481FF02FFEE8E7477D0020D87C0020C0
:10B1E000D97C0020EC03002008B5064806F0B0FA30
:10B1F000054806F0ABFD054806F0C2FDFFF748FF25
:10B20000002008BDA403002088030020780300204C
:10B2100008B5044B1878FFF7F3FEBDE80840FFF7C8
:10B2200037BF00BFD87C0020014B1878704700BFA3
:10B23000D87C0020042808B510D80A4B1A7882421E
:10B240000AD018704FF4F012002307481FF08EFE4A
:10B25000FFF71EFFFFF78EFD002008BD6FF02100F5
:10B26000FBE700BFD87C0020681E0020054B187843
:10B2700005230130B0FBF3F303EB8303C01AC0B224
:10B28000FFF7D8BFD87C0020054B18780523043081
:10B29000B0FBF3F303EB8303C01AC0B2FFF7CABFDE
:10B2A000D87C0020042838B51DD80F23162414FBA1
:10B2B00000340E4B0E491C44204621F048FC18B9BE
:10B2C0006FF01204204638BD2146002006F066FAD1
:10B2D00005460028F4D0132125F0A1F8044628469D
:10B2E00024F07DFFEEE76FF02104EBE7D97C00202E
:10B2F0005987050010B50A4B0A491A7816240F23FE
:10B3000014FB0234084B1C44204621F020FC28B1D9
:10B3100021460020BDE8104006F040BA10BD00BF35
:10B32000D87C002059870500D97C002070B5164DC7
:10B3300090B004460146284621F009FCE8B108A96E
:10B340002846FFF74DFD1149284621F000FC06462E
:10B35000B0B969462046FFF743FD23682B60A388F8
:10B36000AB80A3790A49AB71324608A820F046FCAD
:10B370000722214608A802F099F9002010B070BDFC
:10B380006FF00B00FAE700BFD17C00205987050061
:10B390004F8405001FB54D240294044C0194BDF860
:10B3A0001840009426F082FB04B010BD878405008D
:10B3B00007B5064B00930649064805234FF4407233
:10B3C0001FF03EFD002003B05DF804FBB4630500F0
:10B3D000207E0020981E0020F0B5164E164F89B032
:10B3E00000220023694630461FF0DEFA054608B108
:10B3F00009B0F0BDFFF77EFF04460028F8D0182200
:10B40000294602A829F05EFE08230DEB0301204621
:10B410000397CDF810D0ADF8143008F0F9FB0130E7
:10B4200003D10221204624F07EFF204624F0D7FEDF
:10B43000D6E700BFC8110020206405002DE9F041C7
:10B44000164FDFF85C808AB001AE0022002331463F
:10B4500038461FF0A9FA054610B10AB0BDE8F081E0
:10B46000FFF748FF04460028F7D01822294604A811
:10B4700029F028FE0C2304A92046CDE90586ADF865
:10B480001C3008F0C5FB013003D10221204624F016
:10B490004AFF204624F0A3FED7E700BF9811002002
:10B4A0007064050037B5054640F6CD4201460023DD
:10B4B0000C481FF023FA044678B110F10B0F09D1A4
:10B4C00000220023694607481FF06EFA2846FFF75E
:10B4D000E9FF0446204603B030BD0349034829F084
:10B4E000B4F8F7E7C811002024040020981E0020BB
:10B4F00030B5054685B040F6CD42014600230D48E3
:10B500001FF0FCF9044678B110F10B0F09D10022AD
:10B51000002301A907481FF047FA2846FFF7E8FF74
:10B520000446204605B030BD0349044829F08DF893
:10B53000F7E700BF9811002014040020981E002097
:10B540001FB50023CDE90233044B8DF80C0001A890
:10B55000019320F0B6FF05B05DF804FBEC64050034
:10B5600008B500F09FFDBDE80840014929F06DB81D
:10B57000F404002007B5084828F01AFE48B14FF43B
:10B58000F0120023CDE9002304480022002320F01C
:10B5900031FA03B05DF804FB3454050008100020B4
:10B5A00008B5FEF71DFC10B96FF0850008BDFEF769
:10B5B0002BF938B10138C0B20128F5D8034829F079
:10B5C0002EFA01E0FFF7D6FF0020EFE70810002079
:10B5D00037B50E4CA5682D21EB682046984790B9E9
:10B5E0002D212B696A462046984760B9084C00987F
:10B5F0002378834207D0C0B2207002F02FF810B930
:10B600002078FFF79DFF03B030BD00BF3454050024
:10B61000497D002008B5054828F0CAFD18B1FFF79C
:10B62000A9FF002008BD6FF01200FBE734540500AD
:10B6300013B5002408490948009405234FF400720B
:10B640001FF0FEFB064806F083F8064802F0BEF83D
:10B65000204602B010BD00BF20810020801F0020C6
:10B660002C0500200405002030B50C4B187887B05D
:10B6700090B90B4A52686AB90A4D01221A700FCD6F
:10B6800001AC0FC42B680849236001A805F09EFA9D
:10B6900000EAE07007B030BD0020FBE74A7D0020E3
:10B6A0009443002004570500D1BD020008B5FEF701
:10B6B00041F910B102481FF0BDFB002008BD00BFDA
:10B6C0004C05002084B010B588B00AAC84E80F00A7
:10B6D0001348214640F6CD4200231FF00FF90446DF
:10B6E000C0B110F10B0F0FD10022002302A90C48AA
:10B6F0001FF05AF9DDE90E010AAB00908DF8041035
:10B700000FCBFFF7DFFF0446204608B0BDE810402E
:10B7100004B070470349044828F097FFF4E700BFDE
:10B72000F81100201C050020801F002070B5037850
:10B730008AB004460E4607AD032B20D8DFE803F09D
:10B7400002191B1D11492846FAF74EFE059563782C
:10B750000493A3780393E3780293237901936379A5
:10B760000093A3790A4A1E21304620F01BFA0AB042
:10B7700070BD0849E7E70849E5E70849E3E7084AF3
:10B780000A21284620F00EFAE0E700BFD583050025
:10B79000FE830500DC830500E3830500ED830500DF
:10B7A000F783050010B50F4C86B0FEF7D3F8237869
:10B7B000022B15D1B4F882308DF8170083B1606880
:10B7C00024F0D8FD01280BD90023CDE90133012352
:10B7D0000093B4F8821060680DF1170226F0CCFCDB
:10B7E00006B010BD9443002030B50B4D89B002ACBB
:10B7F00000220023214628461FF0D6F808B109B0E0
:10B8000030BD08AB13E903008DE8030094E80F0096
:10B81000FEF7F0FAECE700BFD810002030B50B4D72
:10B820008DB004AC00220023214628461FF0BCF84E
:10B8300008B10DB030BD0CAB13E90F008DE80F005F
:10B8400094E80F00FEF7FCFAECE700BF08110020B7
:10B8500070B5114E114C8AB00022002304A9304665
:10B860001FF0A2F808B10AB070BD9DF81030A422F4
:10B870005343E518E35C022BEED1B5F880100029A4
:10B88000EAD0CDE9010001230093686814230DF18B
:10B89000110226F071FCDFE7F8110020944300202C
:10B8A00010B508468CB011461AB9828100200CB040
:10B8B00010BD012BFAD90C2B28BF0C231A4601A866
:10B8C00029F0F2FB1C22002105A829F0FBFB9DF8C2
:10B8D0000540231E18BF0123049329F059F84FF4A3
:10B8E0007A72A0FB020302FB0131C00B9DF8043009
:10B8F0008DF8283040EA414004EB8404C90BCDE9BF
:10B9000008011C2362000DF1060105A829F077FB50
:10B910000022002304A904481EF0F0FF03481FF092
:10B9200089FA0120C3E700BF081100205C05002050
:10B93000034B5B68834214BF6FF015000020704713
:10B940009443002008B5FFF7F3FF031EA3BF03488D
:10B95000A42202FB0300002008BD00BF9443002086
:10B9600010B51446FFF7EEFF50B1B0F882303BB18E
:10B9700034B9012904D9BDE8104002481FF05ABA71
:10B9800010BD00BF4C050020F0B5134687B0064639
:10B9900031B91822184629F095FB002007B0F0BDF8
:10B9A000FFF7D0FF04460028F7D0114B876801AAA3
:10B9B00003F1100E944618685968154603C50833FC
:10B9C00073452A46F7D11B782B706146384623F021
:10B9D00062FC08B10120E1E7064BE3600323A060AD
:10B9E000237604F10801304608F01CFAD5E700BFC1
:10B9F00018570500F9B902002DE9F041074694B047
:10BA000016460D46002900F0CD80C968002900F0D7
:10BA1000CB80FFF797FF0446002846D0337C032BEA
:10BA200034D1624B0E686A4603F1100896461868D6
:10BA300059689446ACE80300083343456246F6D1A2
:10BA40001B788CF800307146304623F024FC78BB1C
:10BA500004F168036363E38A2386284626F03DF8F1
:10BA6000534B23620122A085228704F13C03BFF3DC
:10BA70005B8F53E8001F43E800200028F9D1BFF393
:10BA80005B8F04F12001384608F0DEFBB4F880300B
:10BA90004BB1A38D3BB1B4F8823023B1B4F8503030
:10BAA000003B18BF012383F0010014B0BDE8F08112
:10BAB000404B05AA03F11008964618685968944649
:10BAC000ACE80300083343456246F6D11B788CF896
:10BAD00000307146304623F0DEFB20BBA0602B8A8D
